{
	"ExxaAdmin.sol": {
		"ExxaAdmin": {
			"abi": [
				{
					"inputs": [
						{
							"internalType": "address",
							"name": "initialOwner",
							"type": "address"
						},
						{
							"internalType": "address",
							"name": "_usdt",
							"type": "address"
						}
					],
					"stateMutability": "nonpayable",
					"type": "constructor"
				},
				{
					"inputs": [
						{
							"internalType": "address",
							"name": "owner",
							"type": "address"
						}
					],
					"name": "OwnableInvalidOwner",
					"type": "error"
				},
				{
					"inputs": [
						{
							"internalType": "address",
							"name": "account",
							"type": "address"
						}
					],
					"name": "OwnableUnauthorizedAccount",
					"type": "error"
				},
				{
					"anonymous": false,
					"inputs": [
						{
							"indexed": false,
							"internalType": "address",
							"name": "newOperator",
							"type": "address"
						}
					],
					"name": "BackendOperatorUpdated",
					"type": "event"
				},
				{
					"anonymous": false,
					"inputs": [
						{
							"indexed": false,
							"internalType": "uint256",
							"name": "newFeeBps",
							"type": "uint256"
						}
					],
					"name": "DepositFeeUpdated",
					"type": "event"
				},
				{
					"anonymous": false,
					"inputs": [
						{
							"indexed": false,
							"internalType": "bool",
							"name": "paused",
							"type": "bool"
						}
					],
					"name": "DepositsPaused",
					"type": "event"
				},
				{
					"anonymous": false,
					"inputs": [
						{
							"indexed": false,
							"internalType": "address",
							"name": "newOracle",
							"type": "address"
						}
					],
					"name": "OracleUpdated",
					"type": "event"
				},
				{
					"anonymous": false,
					"inputs": [
						{
							"indexed": true,
							"internalType": "address",
							"name": "previousOwner",
							"type": "address"
						},
						{
							"indexed": true,
							"internalType": "address",
							"name": "newOwner",
							"type": "address"
						}
					],
					"name": "OwnershipTransferred",
					"type": "event"
				},
				{
					"inputs": [],
					"name": "backendOperator",
					"outputs": [
						{
							"internalType": "address",
							"name": "",
							"type": "address"
						}
					],
					"stateMutability": "view",
					"type": "function"
				},
				{
					"inputs": [],
					"name": "currentIndexPrice",
					"outputs": [
						{
							"internalType": "uint256",
							"name": "",
							"type": "uint256"
						}
					],
					"stateMutability": "view",
					"type": "function"
				},
				{
					"inputs": [],
					"name": "depositFeeBps",
					"outputs": [
						{
							"internalType": "uint256",
							"name": "",
							"type": "uint256"
						}
					],
					"stateMutability": "view",
					"type": "function"
				},
				{
					"inputs": [],
					"name": "depositsPaused",
					"outputs": [
						{
							"internalType": "bool",
							"name": "",
							"type": "bool"
						}
					],
					"stateMutability": "view",
					"type": "function"
				},
				{
					"inputs": [
						{
							"internalType": "address",
							"name": "caller",
							"type": "address"
						}
					],
					"name": "isAuthorizedOperator",
					"outputs": [
						{
							"internalType": "bool",
							"name": "",
							"type": "bool"
						}
					],
					"stateMutability": "view",
					"type": "function"
				},
				{
					"inputs": [],
					"name": "oracle",
					"outputs": [
						{
							"internalType": "address",
							"name": "",
							"type": "address"
						}
					],
					"stateMutability": "view",
					"type": "function"
				},
				{
					"inputs": [],
					"name": "owner",
					"outputs": [
						{
							"internalType": "address",
							"name": "",
							"type": "address"
						}
					],
					"stateMutability": "view",
					"type": "function"
				},
				{
					"inputs": [],
					"name": "owner_",
					"outputs": [
						{
							"internalType": "address",
							"name": "",
							"type": "address"
						}
					],
					"stateMutability": "view",
					"type": "function"
				},
				{
					"inputs": [],
					"name": "renounceOwnership",
					"outputs": [],
					"stateMutability": "nonpayable",
					"type": "function"
				},
				{
					"inputs": [
						{
							"internalType": "address",
							"name": "_operator",
							"type": "address"
						}
					],
					"name": "setBackendOperator",
					"outputs": [],
					"stateMutability": "nonpayable",
					"type": "function"
				},
				{
					"inputs": [
						{
							"internalType": "uint256",
							"name": "feeBps",
							"type": "uint256"
						}
					],
					"name": "setDepositFee",
					"outputs": [],
					"stateMutability": "nonpayable",
					"type": "function"
				},
				{
					"inputs": [
						{
							"internalType": "bool",
							"name": "paused",
							"type": "bool"
						}
					],
					"name": "setDepositPaused",
					"outputs": [],
					"stateMutability": "nonpayable",
					"type": "function"
				},
				{
					"inputs": [
						{
							"internalType": "address",
							"name": "_oracle",
							"type": "address"
						}
					],
					"name": "setOracle",
					"outputs": [],
					"stateMutability": "nonpayable",
					"type": "function"
				},
				{
					"inputs": [
						{
							"internalType": "address",
							"name": "newOwner",
							"type": "address"
						}
					],
					"name": "transferOwnership",
					"outputs": [],
					"stateMutability": "nonpayable",
					"type": "function"
				},
				{
					"inputs": [],
					"name": "usdt",
					"outputs": [
						{
							"internalType": "address",
							"name": "",
							"type": "address"
						}
					],
					"stateMutability": "view",
					"type": "function"
				}
			],
			"devdoc": {
				"errors": {
					"OwnableInvalidOwner(address)": [
						{
							"details": "The owner is not a valid owner account. (eg. `address(0)`)"
						}
					],
					"OwnableUnauthorizedAccount(address)": [
						{
							"details": "The caller account is not authorized to perform an operation."
						}
					]
				},
				"kind": "dev",
				"methods": {
					"owner()": {
						"details": "Returns the address of the current owner."
					},
					"renounceOwnership()": {
						"details": "Leaves the contract without owner. It will not be possible to call `onlyOwner` functions. Can only be called by the current owner. NOTE: Renouncing ownership will leave the contract without an owner, thereby disabling any functionality that is only available to the owner."
					},
					"transferOwnership(address)": {
						"details": "Transfers ownership of the contract to a new account (`newOwner`). Can only be called by the current owner."
					}
				},
				"title": "ExxaAdmin Handles global fund settings such as pausing, oracle setup, fees, and backend operators. This is meant to be inherited or used as a base admin control layer.",
				"version": 1
			},
			"evm": {
				"assembly": "    /* \"ExxaAdmin.sol\":347:2003  contract ExxaAdmin is Ownable, ExxaBaseStorage {... */\n  mstore(0x40, 0x80)\n    /* \"ExxaAdmin.sol\":430:435  false */\n  0x00\n    /* \"ExxaAdmin.sol\":401:435  bool public depositsPaused = false */\n  0x07\n  exp(0x0100, 0x00)\n  dup2\n  sload\n  dup2\n  0xff\n  mul\n  not\n  and\n  swap1\n  dup4\n  iszero\n  iszero\n  mul\n  or\n  swap1\n  sstore\n  pop\n    /* \"ExxaAdmin.sol\":736:832  constructor(address initialOwner, address _usdt) Ownable(initialOwner) ExxaBaseStorage(_usdt) {} */\n  callvalue\n  dup1\n  iszero\n  tag_1\n  jumpi\n  revert(0x00, 0x00)\ntag_1:\n  pop\n  mload(0x40)\n  sub(codesize, bytecodeSize)\n  dup1\n  bytecodeSize\n  dup4\n  codecopy\n  dup2\n  dup2\n  add\n  0x40\n  mstore\n  dup2\n  add\n  swap1\n  tag_2\n  swap2\n  swap1\n  tag_3\n  jump\t// in\ntag_2:\n    /* \"ExxaAdmin.sol\":823:828  _usdt */\n  dup1\n    /* \"ExxaAdmin.sol\":793:805  initialOwner */\n  dup3\n    /* \"@openzeppelin/contracts/access/Ownable.sol\":1297:1298  0 */\n  0x00\n    /* \"@openzeppelin/contracts/access/Ownable.sol\":1273:1299  initialOwner == address(0) */\n  0xffffffffffffffffffffffffffffffffffffffff\n  and\n    /* \"@openzeppelin/contracts/access/Ownable.sol\":1273:1285  initialOwner */\n  dup2\n    /* \"@openzeppelin/contracts/access/Ownable.sol\":1273:1299  initialOwner == address(0) */\n  0xffffffffffffffffffffffffffffffffffffffff\n  and\n  sub\n    /* \"@openzeppelin/contracts/access/Ownable.sol\":1269:1364  if (initialOwner == address(0)) {... */\n  tag_8\n  jumpi\n    /* \"@openzeppelin/contracts/access/Ownable.sol\":1350:1351  0 */\n  0x00\n    /* \"@openzeppelin/contracts/access/Ownable.sol\":1322:1353  OwnableInvalidOwner(address(0)) */\n  mload(0x40)\n  0x1e4fbdf700000000000000000000000000000000000000000000000000000000\n  dup2\n  mstore\n  0x04\n  add\n  tag_9\n  swap2\n  swap1\n  tag_10\n  jump\t// in\ntag_9:\n  mload(0x40)\n  dup1\n  swap2\n  sub\n  swap1\n  revert\n    /* \"@openzeppelin/contracts/access/Ownable.sol\":1269:1364  if (initialOwner == address(0)) {... */\ntag_8:\n    /* \"@openzeppelin/contracts/access/Ownable.sol\":1373:1405  _transferOwnership(initialOwner) */\n  tag_11\n    /* \"@openzeppelin/contracts/access/Ownable.sol\":1392:1404  initialOwner */\n  dup2\n    /* \"@openzeppelin/contracts/access/Ownable.sol\":1373:1391  _transferOwnership */\n  shl(0x20, tag_12)\n    /* \"@openzeppelin/contracts/access/Ownable.sol\":1373:1405  _transferOwnership(initialOwner) */\n  0x20\n  shr\n  jump\t// in\ntag_11:\n    /* \"@openzeppelin/contracts/access/Ownable.sol\":1225:1412  constructor(address initialOwner) {... */\n  pop\n    /* \"ExxaBaseStorage.sol\":1589:1590  0 */\n  0x00\n    /* \"ExxaBaseStorage.sol\":1572:1591  _usdt != address(0) */\n  0xffffffffffffffffffffffffffffffffffffffff\n  and\n    /* \"ExxaBaseStorage.sol\":1572:1577  _usdt */\n  dup2\n    /* \"ExxaBaseStorage.sol\":1572:1591  _usdt != address(0) */\n  0xffffffffffffffffffffffffffffffffffffffff\n  and\n  sub\n    /* \"ExxaBaseStorage.sol\":1564:1616  require(_usdt != address(0), \"Invalid USDT address\") */\n  tag_14\n  jumpi\n  mload(0x40)\n  0x08c379a000000000000000000000000000000000000000000000000000000000\n  dup2\n  mstore\n  0x04\n  add\n  tag_15\n  swap1\n  tag_16\n  jump\t// in\ntag_15:\n  mload(0x40)\n  dup1\n  swap2\n  sub\n  swap1\n  revert\ntag_14:\n    /* \"ExxaBaseStorage.sol\":1634:1639  _usdt */\n  dup1\n    /* \"ExxaBaseStorage.sol\":1627:1631  usdt */\n  0x02\n  0x00\n    /* \"ExxaBaseStorage.sol\":1627:1639  usdt = _usdt */\n  0x0100\n  exp\n  dup2\n  sload\n  dup2\n  0xffffffffffffffffffffffffffffffffffffffff\n  mul\n  not\n  and\n  swap1\n  dup4\n  0xffffffffffffffffffffffffffffffffffffffff\n  and\n  mul\n  or\n  swap1\n  sstore\n  pop\n    /* \"ExxaBaseStorage.sol\":1659:1669  msg.sender */\n  caller\n    /* \"ExxaBaseStorage.sol\":1650:1656  owner_ */\n  0x03\n  0x00\n    /* \"ExxaBaseStorage.sol\":1650:1669  owner_ = msg.sender */\n  0x0100\n  exp\n  dup2\n  sload\n  dup2\n  0xffffffffffffffffffffffffffffffffffffffff\n  mul\n  not\n  and\n  swap1\n  dup4\n  0xffffffffffffffffffffffffffffffffffffffff\n  and\n  mul\n  or\n  swap1\n  sstore\n  pop\n    /* \"ExxaBaseStorage.sol\":1526:1677  constructor(address _usdt) {... */\n  pop\n    /* \"ExxaAdmin.sol\":736:832  constructor(address initialOwner, address _usdt) Ownable(initialOwner) ExxaBaseStorage(_usdt) {} */\n  pop\n  pop\n    /* \"ExxaAdmin.sol\":347:2003  contract ExxaAdmin is Ownable, ExxaBaseStorage {... */\n  jump(tag_18)\n    /* \"@openzeppelin/contracts/access/Ownable.sol\":2912:3099  function _transferOwnership(address newOwner) internal virtual {... */\ntag_12:\n    /* \"@openzeppelin/contracts/access/Ownable.sol\":2985:3001  address oldOwner */\n  0x00\n    /* \"@openzeppelin/contracts/access/Ownable.sol\":3004:3010  _owner */\n  0x00\n  0x00\n  swap1\n  sload\n  swap1\n  0x0100\n  exp\n  swap1\n  div\n  0xffffffffffffffffffffffffffffffffffffffff\n  and\n    /* \"@openzeppelin/contracts/access/Ownable.sol\":2985:3010  address oldOwner = _owner */\n  swap1\n  pop\n    /* \"@openzeppelin/contracts/access/Ownable.sol\":3029:3037  newOwner */\n  dup2\n    /* \"@openzeppelin/contracts/access/Ownable.sol\":3020:3026  _owner */\n  0x00\n  0x00\n    /* \"@openzeppelin/contracts/access/Ownable.sol\":3020:3037  _owner = newOwner */\n  0x0100\n  exp\n  dup2\n  sload\n  dup2\n  0xffffffffffffffffffffffffffffffffffffffff\n  mul\n  not\n  and\n  swap1\n  dup4\n  0xffffffffffffffffffffffffffffffffffffffff\n  and\n  mul\n  or\n  swap1\n  sstore\n  pop\n    /* \"@openzeppelin/contracts/access/Ownable.sol\":3083:3091  newOwner */\n  dup2\n    /* \"@openzeppelin/contracts/access/Ownable.sol\":3052:3092  OwnershipTransferred(oldOwner, newOwner) */\n  0xffffffffffffffffffffffffffffffffffffffff\n  and\n    /* \"@openzeppelin/contracts/access/Ownable.sol\":3073:3081  oldOwner */\n  dup2\n    /* \"@openzeppelin/contracts/access/Ownable.sol\":3052:3092  OwnershipTransferred(oldOwner, newOwner) */\n  0xffffffffffffffffffffffffffffffffffffffff\n  and\n  0x8be0079c531659141344cd1fd0a4f28419497f9722a3daafe3b4186f6b6457e0\n  mload(0x40)\n  mload(0x40)\n  dup1\n  swap2\n  sub\n  swap1\n  log3\n    /* \"@openzeppelin/contracts/access/Ownable.sol\":2975:3099  {... */\n  pop\n    /* \"@openzeppelin/contracts/access/Ownable.sol\":2912:3099  function _transferOwnership(address newOwner) internal virtual {... */\n  pop\n  jump\t// out\n    /* \"#utility.yul\":88:205   */\ntag_21:\n    /* \"#utility.yul\":197:198   */\n  0x00\n    /* \"#utility.yul\":194:195   */\n  0x00\n    /* \"#utility.yul\":187:199   */\n  revert\n    /* \"#utility.yul\":334:460   */\ntag_23:\n    /* \"#utility.yul\":371:378   */\n  0x00\n    /* \"#utility.yul\":411:453   */\n  0xffffffffffffffffffffffffffffffffffffffff\n    /* \"#utility.yul\":404:409   */\n  dup3\n    /* \"#utility.yul\":400:454   */\n  and\n    /* \"#utility.yul\":389:454   */\n  swap1\n  pop\n    /* \"#utility.yul\":334:460   */\n  swap2\n  swap1\n  pop\n  jump\t// out\n    /* \"#utility.yul\":466:562   */\ntag_24:\n    /* \"#utility.yul\":503:510   */\n  0x00\n    /* \"#utility.yul\":532:556   */\n  tag_37\n    /* \"#utility.yul\":550:555   */\n  dup3\n    /* \"#utility.yul\":532:556   */\n  tag_23\n  jump\t// in\ntag_37:\n    /* \"#utility.yul\":521:556   */\n  swap1\n  pop\n    /* \"#utility.yul\":466:562   */\n  swap2\n  swap1\n  pop\n  jump\t// out\n    /* \"#utility.yul\":568:690   */\ntag_25:\n    /* \"#utility.yul\":641:665   */\n  tag_39\n    /* \"#utility.yul\":659:664   */\n  dup2\n    /* \"#utility.yul\":641:665   */\n  tag_24\n  jump\t// in\ntag_39:\n    /* \"#utility.yul\":634:639   */\n  dup2\n    /* \"#utility.yul\":631:666   */\n  eq\n    /* \"#utility.yul\":621:684   */\n  tag_40\n  jumpi\n    /* \"#utility.yul\":680:681   */\n  0x00\n    /* \"#utility.yul\":677:678   */\n  0x00\n    /* \"#utility.yul\":670:682   */\n  revert\n    /* \"#utility.yul\":621:684   */\ntag_40:\n    /* \"#utility.yul\":568:690   */\n  pop\n  jump\t// out\n    /* \"#utility.yul\":696:839   */\ntag_26:\n    /* \"#utility.yul\":753:758   */\n  0x00\n    /* \"#utility.yul\":784:790   */\n  dup2\n    /* \"#utility.yul\":778:791   */\n  mload\n    /* \"#utility.yul\":769:791   */\n  swap1\n  pop\n    /* \"#utility.yul\":800:833   */\n  tag_42\n    /* \"#utility.yul\":827:832   */\n  dup2\n    /* \"#utility.yul\":800:833   */\n  tag_25\n  jump\t// in\ntag_42:\n    /* \"#utility.yul\":696:839   */\n  swap3\n  swap2\n  pop\n  pop\n  jump\t// out\n    /* \"#utility.yul\":845:1352   */\ntag_3:\n    /* \"#utility.yul\":924:930   */\n  0x00\n    /* \"#utility.yul\":932:938   */\n  0x00\n    /* \"#utility.yul\":981:983   */\n  0x40\n    /* \"#utility.yul\":969:978   */\n  dup4\n    /* \"#utility.yul\":960:967   */\n  dup6\n    /* \"#utility.yul\":956:979   */\n  sub\n    /* \"#utility.yul\":952:984   */\n  slt\n    /* \"#utility.yul\":949:1068   */\n  iszero\n  tag_44\n  jumpi\n    /* \"#utility.yul\":987:1066   */\n  tag_45\n  tag_21\n  jump\t// in\ntag_45:\n    /* \"#utility.yul\":949:1068   */\ntag_44:\n    /* \"#utility.yul\":1107:1108   */\n  0x00\n    /* \"#utility.yul\":1132:1196   */\n  tag_46\n    /* \"#utility.yul\":1188:1195   */\n  dup6\n    /* \"#utility.yul\":1179:1185   */\n  dup3\n    /* \"#utility.yul\":1168:1177   */\n  dup7\n    /* \"#utility.yul\":1164:1186   */\n  add\n    /* \"#utility.yul\":1132:1196   */\n  tag_26\n  jump\t// in\ntag_46:\n    /* \"#utility.yul\":1122:1196   */\n  swap3\n  pop\n    /* \"#utility.yul\":1078:1206   */\n  pop\n    /* \"#utility.yul\":1245:1247   */\n  0x20\n    /* \"#utility.yul\":1271:1335   */\n  tag_47\n    /* \"#utility.yul\":1327:1334   */\n  dup6\n    /* \"#utility.yul\":1318:1324   */\n  dup3\n    /* \"#utility.yul\":1307:1316   */\n  dup7\n    /* \"#utility.yul\":1303:1325   */\n  add\n    /* \"#utility.yul\":1271:1335   */\n  tag_26\n  jump\t// in\ntag_47:\n    /* \"#utility.yul\":1261:1335   */\n  swap2\n  pop\n    /* \"#utility.yul\":1216:1345   */\n  pop\n    /* \"#utility.yul\":845:1352   */\n  swap3\n  pop\n  swap3\n  swap1\n  pop\n  jump\t// out\n    /* \"#utility.yul\":1358:1476   */\ntag_27:\n    /* \"#utility.yul\":1445:1469   */\n  tag_49\n    /* \"#utility.yul\":1463:1468   */\n  dup2\n    /* \"#utility.yul\":1445:1469   */\n  tag_24\n  jump\t// in\ntag_49:\n    /* \"#utility.yul\":1440:1443   */\n  dup3\n    /* \"#utility.yul\":1433:1470   */\n  mstore\n    /* \"#utility.yul\":1358:1476   */\n  pop\n  pop\n  jump\t// out\n    /* \"#utility.yul\":1482:1704   */\ntag_10:\n    /* \"#utility.yul\":1575:1579   */\n  0x00\n    /* \"#utility.yul\":1613:1615   */\n  0x20\n    /* \"#utility.yul\":1602:1611   */\n  dup3\n    /* \"#utility.yul\":1598:1616   */\n  add\n    /* \"#utility.yul\":1590:1616   */\n  swap1\n  pop\n    /* \"#utility.yul\":1626:1697   */\n  tag_51\n    /* \"#utility.yul\":1694:1695   */\n  0x00\n    /* \"#utility.yul\":1683:1692   */\n  dup4\n    /* \"#utility.yul\":1679:1696   */\n  add\n    /* \"#utility.yul\":1670:1676   */\n  dup5\n    /* \"#utility.yul\":1626:1697   */\n  tag_27\n  jump\t// in\ntag_51:\n    /* \"#utility.yul\":1482:1704   */\n  swap3\n  swap2\n  pop\n  pop\n  jump\t// out\n    /* \"#utility.yul\":1710:1879   */\ntag_28:\n    /* \"#utility.yul\":1794:1805   */\n  0x00\n    /* \"#utility.yul\":1828:1834   */\n  dup3\n    /* \"#utility.yul\":1823:1826   */\n  dup3\n    /* \"#utility.yul\":1816:1835   */\n  mstore\n    /* \"#utility.yul\":1868:1872   */\n  0x20\n    /* \"#utility.yul\":1863:1866   */\n  dup3\n    /* \"#utility.yul\":1859:1873   */\n  add\n    /* \"#utility.yul\":1844:1873   */\n  swap1\n  pop\n    /* \"#utility.yul\":1710:1879   */\n  swap3\n  swap2\n  pop\n  pop\n  jump\t// out\n    /* \"#utility.yul\":1885:2055   */\ntag_29:\n    /* \"#utility.yul\":2025:2047   */\n  0x496e76616c696420555344542061646472657373000000000000000000000000\n    /* \"#utility.yul\":2021:2022   */\n  0x00\n    /* \"#utility.yul\":2013:2019   */\n  dup3\n    /* \"#utility.yul\":2009:2023   */\n  add\n    /* \"#utility.yul\":2002:2048   */\n  mstore\n    /* \"#utility.yul\":1885:2055   */\n  pop\n  jump\t// out\n    /* \"#utility.yul\":2061:2427   */\ntag_30:\n    /* \"#utility.yul\":2203:2206   */\n  0x00\n    /* \"#utility.yul\":2224:2291   */\n  tag_55\n    /* \"#utility.yul\":2288:2290   */\n  0x14\n    /* \"#utility.yul\":2283:2286   */\n  dup4\n    /* \"#utility.yul\":2224:2291   */\n  tag_28\n  jump\t// in\ntag_55:\n    /* \"#utility.yul\":2217:2291   */\n  swap2\n  pop\n    /* \"#utility.yul\":2300:2393   */\n  tag_56\n    /* \"#utility.yul\":2389:2392   */\n  dup3\n    /* \"#utility.yul\":2300:2393   */\n  tag_29\n  jump\t// in\ntag_56:\n    /* \"#utility.yul\":2418:2420   */\n  0x20\n    /* \"#utility.yul\":2413:2416   */\n  dup3\n    /* \"#utility.yul\":2409:2421   */\n  add\n    /* \"#utility.yul\":2402:2421   */\n  swap1\n  pop\n    /* \"#utility.yul\":2061:2427   */\n  swap2\n  swap1\n  pop\n  jump\t// out\n    /* \"#utility.yul\":2433:2852   */\ntag_16:\n    /* \"#utility.yul\":2599:2603   */\n  0x00\n    /* \"#utility.yul\":2637:2639   */\n  0x20\n    /* \"#utility.yul\":2626:2635   */\n  dup3\n    /* \"#utility.yul\":2622:2640   */\n  add\n    /* \"#utility.yul\":2614:2640   */\n  swap1\n  pop\n    /* \"#utility.yul\":2686:2695   */\n  dup2\n    /* \"#utility.yul\":2680:2684   */\n  dup2\n    /* \"#utility.yul\":2676:2696   */\n  sub\n    /* \"#utility.yul\":2672:2673   */\n  0x00\n    /* \"#utility.yul\":2661:2670   */\n  dup4\n    /* \"#utility.yul\":2657:2674   */\n  add\n    /* \"#utility.yul\":2650:2697   */\n  mstore\n    /* \"#utility.yul\":2714:2845   */\n  tag_58\n    /* \"#utility.yul\":2840:2844   */\n  dup2\n    /* \"#utility.yul\":2714:2845   */\n  tag_30\n  jump\t// in\ntag_58:\n    /* \"#utility.yul\":2706:2845   */\n  swap1\n  pop\n    /* \"#utility.yul\":2433:2852   */\n  swap2\n  swap1\n  pop\n  jump\t// out\n    /* \"ExxaAdmin.sol\":347:2003  contract ExxaAdmin is Ownable, ExxaBaseStorage {... */\ntag_18:\n  dataSize(sub_0)\n  dup1\n  dataOffset(sub_0)\n  0x00\n  codecopy\n  0x00\n  return\nstop\n\nsub_0: assembly {\n        /* \"ExxaAdmin.sol\":347:2003  contract ExxaAdmin is Ownable, ExxaBaseStorage {... */\n      mstore(0x40, 0x80)\n      callvalue\n      dup1\n      iszero\n      tag_1\n      jumpi\n      revert(0x00, 0x00)\n    tag_1:\n      pop\n      jumpi(tag_2, lt(calldatasize, 0x04))\n      shr(0xe0, calldataload(0x00))\n      dup1\n      0x7dc0d1d0\n      gt\n      tag_18\n      jumpi\n      dup1\n      0xab879827\n      gt\n      tag_19\n      jumpi\n      dup1\n      0xab879827\n      eq\n      tag_14\n      jumpi\n      dup1\n      0xc7b6084c\n      eq\n      tag_15\n      jumpi\n      dup1\n      0xe7663079\n      eq\n      tag_16\n      jumpi\n      dup1\n      0xf2fde38b\n      eq\n      tag_17\n      jumpi\n      jump(tag_2)\n    tag_19:\n      dup1\n      0x7dc0d1d0\n      eq\n      tag_10\n      jumpi\n      dup1\n      0x82d52c1e\n      eq\n      tag_11\n      jumpi\n      dup1\n      0x8da5cb5b\n      eq\n      tag_12\n      jumpi\n      dup1\n      0x8e6b409e\n      eq\n      tag_13\n      jumpi\n      jump(tag_2)\n    tag_18:\n      dup1\n      0x543f66a4\n      gt\n      tag_20\n      jumpi\n      dup1\n      0x543f66a4\n      eq\n      tag_6\n      jumpi\n      dup1\n      0x60da3e83\n      eq\n      tag_7\n      jumpi\n      dup1\n      0x715018a6\n      eq\n      tag_8\n      jumpi\n      dup1\n      0x7adbf973\n      eq\n      tag_9\n      jumpi\n      jump(tag_2)\n    tag_20:\n      dup1\n      0x02262ced\n      eq\n      tag_3\n      jumpi\n      dup1\n      0x2f48ab7d\n      eq\n      tag_4\n      jumpi\n      dup1\n      0x490ae210\n      eq\n      tag_5\n      jumpi\n    tag_2:\n      revert(0x00, 0x00)\n        /* \"ExxaAdmin.sol\":1367:1528  function setBackendOperator(address _operator) external onlyOwner {... */\n    tag_3:\n      tag_21\n      0x04\n      dup1\n      calldatasize\n      sub\n      dup2\n      add\n      swap1\n      tag_22\n      swap2\n      swap1\n      tag_23\n      jump\t// in\n    tag_22:\n      tag_24\n      jump\t// in\n    tag_21:\n      stop\n        /* \"ExxaBaseStorage.sol\":275:294  address public usdt */\n    tag_4:\n      tag_25\n      tag_26\n      jump\t// in\n    tag_25:\n      mload(0x40)\n      tag_27\n      swap2\n      swap1\n      tag_28\n      jump\t// in\n    tag_27:\n      mload(0x40)\n      dup1\n      swap2\n      sub\n      swap1\n      return\n        /* \"ExxaAdmin.sol\":1589:1778  function setDepositFee(uint256 feeBps) external onlyOwner {... */\n    tag_5:\n      tag_29\n      0x04\n      dup1\n      calldatasize\n      sub\n      dup2\n      add\n      swap1\n      tag_30\n      swap2\n      swap1\n      tag_31\n      jump\t// in\n    tag_30:\n      tag_32\n      jump\t// in\n    tag_29:\n      stop\n        /* \"ExxaAdmin.sol\":902:1040  function setDepositPaused(bool paused) external onlyOwner {... */\n    tag_6:\n      tag_33\n      0x04\n      dup1\n      calldatasize\n      sub\n      dup2\n      add\n      swap1\n      tag_34\n      swap2\n      swap1\n      tag_35\n      jump\t// in\n    tag_34:\n      tag_36\n      jump\t// in\n    tag_33:\n      stop\n        /* \"ExxaAdmin.sol\":401:435  bool public depositsPaused = false */\n    tag_7:\n      tag_37\n      tag_38\n      jump\t// in\n    tag_37:\n      mload(0x40)\n      tag_39\n      swap2\n      swap1\n      tag_40\n      jump\t// in\n    tag_39:\n      mload(0x40)\n      dup1\n      swap2\n      sub\n      swap1\n      return\n        /* \"@openzeppelin/contracts/access/Ownable.sol\":2293:2394  function renounceOwnership() public virtual onlyOwner {... */\n    tag_8:\n      tag_41\n      tag_42\n      jump\t// in\n    tag_41:\n      stop\n        /* \"ExxaAdmin.sol\":1110:1305  function setOracle(address _oracle) external onlyOwner {... */\n    tag_9:\n      tag_43\n      0x04\n      dup1\n      calldatasize\n      sub\n      dup2\n      add\n      swap1\n      tag_44\n      swap2\n      swap1\n      tag_23\n      jump\t// in\n    tag_44:\n      tag_45\n      jump\t// in\n    tag_43:\n      stop\n        /* \"ExxaAdmin.sol\":442:463  address public oracle */\n    tag_10:\n      tag_46\n      tag_47\n      jump\t// in\n    tag_46:\n      mload(0x40)\n      tag_48\n      swap2\n      swap1\n      tag_28\n      jump\t// in\n    tag_48:\n      mload(0x40)\n      dup1\n      swap2\n      sub\n      swap1\n      return\n        /* \"ExxaAdmin.sol\":1853:2000  function isAuthorizedOperator(address caller) public view returns (bool) {... */\n    tag_11:\n      tag_49\n      0x04\n      dup1\n      calldatasize\n      sub\n      dup2\n      add\n      swap1\n      tag_50\n      swap2\n      swap1\n      tag_23\n      jump\t// in\n    tag_50:\n      tag_51\n      jump\t// in\n    tag_49:\n      mload(0x40)\n      tag_52\n      swap2\n      swap1\n      tag_40\n      jump\t// in\n    tag_52:\n      mload(0x40)\n      dup1\n      swap2\n      sub\n      swap1\n      return\n        /* \"@openzeppelin/contracts/access/Ownable.sol\":1638:1723  function owner() public view virtual returns (address) {... */\n    tag_12:\n      tag_53\n      tag_54\n      jump\t// in\n    tag_53:\n      mload(0x40)\n      tag_55\n      swap2\n      swap1\n      tag_28\n      jump\t// in\n    tag_55:\n      mload(0x40)\n      dup1\n      swap2\n      sub\n      swap1\n      return\n        /* \"ExxaBaseStorage.sol\":492:524  uint256 public currentIndexPrice */\n    tag_13:\n      tag_56\n      tag_57\n      jump\t// in\n    tag_56:\n      mload(0x40)\n      tag_58\n      swap2\n      swap1\n      tag_59\n      jump\t// in\n    tag_58:\n      mload(0x40)\n      dup1\n      swap2\n      sub\n      swap1\n      return\n        /* \"ExxaAdmin.sol\":507:535  uint256 public depositFeeBps */\n    tag_14:\n      tag_60\n      tag_61\n      jump\t// in\n    tag_60:\n      mload(0x40)\n      tag_62\n      swap2\n      swap1\n      tag_59\n      jump\t// in\n    tag_62:\n      mload(0x40)\n      dup1\n      swap2\n      sub\n      swap1\n      return\n        /* \"ExxaAdmin.sol\":470:500  address public backendOperator */\n    tag_15:\n      tag_63\n      tag_64\n      jump\t// in\n    tag_63:\n      mload(0x40)\n      tag_65\n      swap2\n      swap1\n      tag_28\n      jump\t// in\n    tag_65:\n      mload(0x40)\n      dup1\n      swap2\n      sub\n      swap1\n      return\n        /* \"ExxaBaseStorage.sol\":381:402  address public owner_ */\n    tag_16:\n      tag_66\n      tag_67\n      jump\t// in\n    tag_66:\n      mload(0x40)\n      tag_68\n      swap2\n      swap1\n      tag_28\n      jump\t// in\n    tag_68:\n      mload(0x40)\n      dup1\n      swap2\n      sub\n      swap1\n      return\n        /* \"@openzeppelin/contracts/access/Ownable.sol\":2543:2758  function transferOwnership(address newOwner) public virtual onlyOwner {... */\n    tag_17:\n      tag_69\n      0x04\n      dup1\n      calldatasize\n      sub\n      dup2\n      add\n      swap1\n      tag_70\n      swap2\n      swap1\n      tag_23\n      jump\t// in\n    tag_70:\n      tag_71\n      jump\t// in\n    tag_69:\n      stop\n        /* \"ExxaAdmin.sol\":1367:1528  function setBackendOperator(address _operator) external onlyOwner {... */\n    tag_24:\n        /* \"@openzeppelin/contracts/access/Ownable.sol\":1531:1544  _checkOwner() */\n      tag_73\n        /* \"@openzeppelin/contracts/access/Ownable.sol\":1531:1542  _checkOwner */\n      tag_74\n        /* \"@openzeppelin/contracts/access/Ownable.sol\":1531:1544  _checkOwner() */\n      jump\t// in\n    tag_73:\n        /* \"ExxaAdmin.sol\":1462:1471  _operator */\n      dup1\n        /* \"ExxaAdmin.sol\":1444:1459  backendOperator */\n      0x08\n      0x00\n        /* \"ExxaAdmin.sol\":1444:1471  backendOperator = _operator */\n      0x0100\n      exp\n      dup2\n      sload\n      dup2\n      0xffffffffffffffffffffffffffffffffffffffff\n      mul\n      not\n      and\n      swap1\n      dup4\n      0xffffffffffffffffffffffffffffffffffffffff\n      and\n      mul\n      or\n      swap1\n      sstore\n      pop\n        /* \"ExxaAdmin.sol\":1487:1520  BackendOperatorUpdated(_operator) */\n      0x8f044878f4d84ccc4d80555f24f9428c1d9297c48b7c7a17e6a50263be17ef54\n        /* \"ExxaAdmin.sol\":1510:1519  _operator */\n      dup2\n        /* \"ExxaAdmin.sol\":1487:1520  BackendOperatorUpdated(_operator) */\n      mload(0x40)\n      tag_76\n      swap2\n      swap1\n      tag_28\n      jump\t// in\n    tag_76:\n      mload(0x40)\n      dup1\n      swap2\n      sub\n      swap1\n      log1\n        /* \"ExxaAdmin.sol\":1367:1528  function setBackendOperator(address _operator) external onlyOwner {... */\n      pop\n      jump\t// out\n        /* \"ExxaBaseStorage.sol\":275:294  address public usdt */\n    tag_26:\n      0x02\n      0x00\n      swap1\n      sload\n      swap1\n      0x0100\n      exp\n      swap1\n      div\n      0xffffffffffffffffffffffffffffffffffffffff\n      and\n      dup2\n      jump\t// out\n        /* \"ExxaAdmin.sol\":1589:1778  function setDepositFee(uint256 feeBps) external onlyOwner {... */\n    tag_32:\n        /* \"@openzeppelin/contracts/access/Ownable.sol\":1531:1544  _checkOwner() */\n      tag_78\n        /* \"@openzeppelin/contracts/access/Ownable.sol\":1531:1542  _checkOwner */\n      tag_74\n        /* \"@openzeppelin/contracts/access/Ownable.sol\":1531:1544  _checkOwner() */\n      jump\t// in\n    tag_78:\n        /* \"ExxaAdmin.sol\":1676:1679  500 */\n      0x01f4\n        /* \"ExxaAdmin.sol\":1666:1672  feeBps */\n      dup2\n        /* \"ExxaAdmin.sol\":1666:1679  feeBps <= 500 */\n      gt\n      iszero\n        /* \"ExxaAdmin.sol\":1658:1696  require(feeBps <= 500, \"Fee too high\") */\n      tag_80\n      jumpi\n      mload(0x40)\n      0x08c379a000000000000000000000000000000000000000000000000000000000\n      dup2\n      mstore\n      0x04\n      add\n      tag_81\n      swap1\n      tag_82\n      jump\t// in\n    tag_81:\n      mload(0x40)\n      dup1\n      swap2\n      sub\n      swap1\n      revert\n    tag_80:\n        /* \"ExxaAdmin.sol\":1723:1729  feeBps */\n      dup1\n        /* \"ExxaAdmin.sol\":1707:1720  depositFeeBps */\n      0x09\n        /* \"ExxaAdmin.sol\":1707:1729  depositFeeBps = feeBps */\n      dup2\n      swap1\n      sstore\n      pop\n        /* \"ExxaAdmin.sol\":1745:1770  DepositFeeUpdated(feeBps) */\n      0x206dd15151fcc83315419fbe53a71fcf9c09da803767d3dd05f7874e1b9bf645\n        /* \"ExxaAdmin.sol\":1763:1769  feeBps */\n      dup2\n        /* \"ExxaAdmin.sol\":1745:1770  DepositFeeUpdated(feeBps) */\n      mload(0x40)\n      tag_83\n      swap2\n      swap1\n      tag_59\n      jump\t// in\n    tag_83:\n      mload(0x40)\n      dup1\n      swap2\n      sub\n      swap1\n      log1\n        /* \"ExxaAdmin.sol\":1589:1778  function setDepositFee(uint256 feeBps) external onlyOwner {... */\n      pop\n      jump\t// out\n        /* \"ExxaAdmin.sol\":902:1040  function setDepositPaused(bool paused) external onlyOwner {... */\n    tag_36:\n        /* \"@openzeppelin/contracts/access/Ownable.sol\":1531:1544  _checkOwner() */\n      tag_85\n        /* \"@openzeppelin/contracts/access/Ownable.sol\":1531:1542  _checkOwner */\n      tag_74\n        /* \"@openzeppelin/contracts/access/Ownable.sol\":1531:1544  _checkOwner() */\n      jump\t// in\n    tag_85:\n        /* \"ExxaAdmin.sol\":988:994  paused */\n      dup1\n        /* \"ExxaAdmin.sol\":971:985  depositsPaused */\n      0x07\n      0x00\n        /* \"ExxaAdmin.sol\":971:994  depositsPaused = paused */\n      0x0100\n      exp\n      dup2\n      sload\n      dup2\n      0xff\n      mul\n      not\n      and\n      swap1\n      dup4\n      iszero\n      iszero\n      mul\n      or\n      swap1\n      sstore\n      pop\n        /* \"ExxaAdmin.sol\":1010:1032  DepositsPaused(paused) */\n      0x5ef34f53269a04b5b817e5be24a51ba6b477118b399ec9dd5b2baf5b299563dc\n        /* \"ExxaAdmin.sol\":1025:1031  paused */\n      dup2\n        /* \"ExxaAdmin.sol\":1010:1032  DepositsPaused(paused) */\n      mload(0x40)\n      tag_87\n      swap2\n      swap1\n      tag_40\n      jump\t// in\n    tag_87:\n      mload(0x40)\n      dup1\n      swap2\n      sub\n      swap1\n      log1\n        /* \"ExxaAdmin.sol\":902:1040  function setDepositPaused(bool paused) external onlyOwner {... */\n      pop\n      jump\t// out\n        /* \"ExxaAdmin.sol\":401:435  bool public depositsPaused = false */\n    tag_38:\n      0x07\n      0x00\n      swap1\n      sload\n      swap1\n      0x0100\n      exp\n      swap1\n      div\n      0xff\n      and\n      dup2\n      jump\t// out\n        /* \"@openzeppelin/contracts/access/Ownable.sol\":2293:2394  function renounceOwnership() public virtual onlyOwner {... */\n    tag_42:\n        /* \"@openzeppelin/contracts/access/Ownable.sol\":1531:1544  _checkOwner() */\n      tag_89\n        /* \"@openzeppelin/contracts/access/Ownable.sol\":1531:1542  _checkOwner */\n      tag_74\n        /* \"@openzeppelin/contracts/access/Ownable.sol\":1531:1544  _checkOwner() */\n      jump\t// in\n    tag_89:\n        /* \"@openzeppelin/contracts/access/Ownable.sol\":2357:2387  _transferOwnership(address(0)) */\n      tag_91\n        /* \"@openzeppelin/contracts/access/Ownable.sol\":2384:2385  0 */\n      0x00\n        /* \"@openzeppelin/contracts/access/Ownable.sol\":2357:2375  _transferOwnership */\n      tag_92\n        /* \"@openzeppelin/contracts/access/Ownable.sol\":2357:2387  _transferOwnership(address(0)) */\n      jump\t// in\n    tag_91:\n        /* \"@openzeppelin/contracts/access/Ownable.sol\":2293:2394  function renounceOwnership() public virtual onlyOwner {... */\n      jump\t// out\n        /* \"ExxaAdmin.sol\":1110:1305  function setOracle(address _oracle) external onlyOwner {... */\n    tag_45:\n        /* \"@openzeppelin/contracts/access/Ownable.sol\":1531:1544  _checkOwner() */\n      tag_94\n        /* \"@openzeppelin/contracts/access/Ownable.sol\":1531:1542  _checkOwner */\n      tag_74\n        /* \"@openzeppelin/contracts/access/Ownable.sol\":1531:1544  _checkOwner() */\n      jump\t// in\n    tag_94:\n        /* \"ExxaAdmin.sol\":1203:1204  0 */\n      0x00\n        /* \"ExxaAdmin.sol\":1184:1205  _oracle != address(0) */\n      0xffffffffffffffffffffffffffffffffffffffff\n      and\n        /* \"ExxaAdmin.sol\":1184:1191  _oracle */\n      dup2\n        /* \"ExxaAdmin.sol\":1184:1205  _oracle != address(0) */\n      0xffffffffffffffffffffffffffffffffffffffff\n      and\n      sub\n        /* \"ExxaAdmin.sol\":1176:1232  require(_oracle != address(0), \"Invalid oracle address\") */\n      tag_96\n      jumpi\n      mload(0x40)\n      0x08c379a000000000000000000000000000000000000000000000000000000000\n      dup2\n      mstore\n      0x04\n      add\n      tag_97\n      swap1\n      tag_98\n      jump\t// in\n    tag_97:\n      mload(0x40)\n      dup1\n      swap2\n      sub\n      swap1\n      revert\n    tag_96:\n        /* \"ExxaAdmin.sol\":1252:1259  _oracle */\n      dup1\n        /* \"ExxaAdmin.sol\":1243:1249  oracle */\n      0x07\n      0x01\n        /* \"ExxaAdmin.sol\":1243:1259  oracle = _oracle */\n      0x0100\n      exp\n      dup2\n      sload\n      dup2\n      0xffffffffffffffffffffffffffffffffffffffff\n      mul\n      not\n      and\n      swap1\n      dup4\n      0xffffffffffffffffffffffffffffffffffffffff\n      and\n      mul\n      or\n      swap1\n      sstore\n      pop\n        /* \"ExxaAdmin.sol\":1275:1297  OracleUpdated(_oracle) */\n      0x3df77beb5db05fcdd70a30fc8adf3f83f9501b68579455adbd100b8180940394\n        /* \"ExxaAdmin.sol\":1289:1296  _oracle */\n      dup2\n        /* \"ExxaAdmin.sol\":1275:1297  OracleUpdated(_oracle) */\n      mload(0x40)\n      tag_99\n      swap2\n      swap1\n      tag_28\n      jump\t// in\n    tag_99:\n      mload(0x40)\n      dup1\n      swap2\n      sub\n      swap1\n      log1\n        /* \"ExxaAdmin.sol\":1110:1305  function setOracle(address _oracle) external onlyOwner {... */\n      pop\n      jump\t// out\n        /* \"ExxaAdmin.sol\":442:463  address public oracle */\n    tag_47:\n      0x07\n      0x01\n      swap1\n      sload\n      swap1\n      0x0100\n      exp\n      swap1\n      div\n      0xffffffffffffffffffffffffffffffffffffffff\n      and\n      dup2\n      jump\t// out\n        /* \"ExxaAdmin.sol\":1853:2000  function isAuthorizedOperator(address caller) public view returns (bool) {... */\n    tag_51:\n        /* \"ExxaAdmin.sol\":1920:1924  bool */\n      0x00\n        /* \"ExxaAdmin.sol\":1955:1962  owner() */\n      tag_101\n        /* \"ExxaAdmin.sol\":1955:1960  owner */\n      tag_54\n        /* \"ExxaAdmin.sol\":1955:1962  owner() */\n      jump\t// in\n    tag_101:\n        /* \"ExxaAdmin.sol\":1945:1962  caller == owner() */\n      0xffffffffffffffffffffffffffffffffffffffff\n      and\n        /* \"ExxaAdmin.sol\":1945:1951  caller */\n      dup3\n        /* \"ExxaAdmin.sol\":1945:1962  caller == owner() */\n      0xffffffffffffffffffffffffffffffffffffffff\n      and\n      eq\n        /* \"ExxaAdmin.sol\":1945:1991  caller == owner() || caller == backendOperator */\n      dup1\n      tag_102\n      jumpi\n      pop\n        /* \"ExxaAdmin.sol\":1976:1991  backendOperator */\n      0x08\n      0x00\n      swap1\n      sload\n      swap1\n      0x0100\n      exp\n      swap1\n      div\n      0xffffffffffffffffffffffffffffffffffffffff\n      and\n        /* \"ExxaAdmin.sol\":1966:1991  caller == backendOperator */\n      0xffffffffffffffffffffffffffffffffffffffff\n      and\n        /* \"ExxaAdmin.sol\":1966:1972  caller */\n      dup3\n        /* \"ExxaAdmin.sol\":1966:1991  caller == backendOperator */\n      0xffffffffffffffffffffffffffffffffffffffff\n      and\n      eq\n        /* \"ExxaAdmin.sol\":1945:1991  caller == owner() || caller == backendOperator */\n    tag_102:\n        /* \"ExxaAdmin.sol\":1937:1992  return (caller == owner() || caller == backendOperator) */\n      swap1\n      pop\n        /* \"ExxaAdmin.sol\":1853:2000  function isAuthorizedOperator(address caller) public view returns (bool) {... */\n      swap2\n      swap1\n      pop\n      jump\t// out\n        /* \"@openzeppelin/contracts/access/Ownable.sol\":1638:1723  function owner() public view virtual returns (address) {... */\n    tag_54:\n        /* \"@openzeppelin/contracts/access/Ownable.sol\":1684:1691  address */\n      0x00\n        /* \"@openzeppelin/contracts/access/Ownable.sol\":1710:1716  _owner */\n      0x00\n      0x00\n      swap1\n      sload\n      swap1\n      0x0100\n      exp\n      swap1\n      div\n      0xffffffffffffffffffffffffffffffffffffffff\n      and\n        /* \"@openzeppelin/contracts/access/Ownable.sol\":1703:1716  return _owner */\n      swap1\n      pop\n        /* \"@openzeppelin/contracts/access/Ownable.sol\":1638:1723  function owner() public view virtual returns (address) {... */\n      swap1\n      jump\t// out\n        /* \"ExxaBaseStorage.sol\":492:524  uint256 public currentIndexPrice */\n    tag_57:\n      sload(0x04)\n      dup2\n      jump\t// out\n        /* \"ExxaAdmin.sol\":507:535  uint256 public depositFeeBps */\n    tag_61:\n      sload(0x09)\n      dup2\n      jump\t// out\n        /* \"ExxaAdmin.sol\":470:500  address public backendOperator */\n    tag_64:\n      0x08\n      0x00\n      swap1\n      sload\n      swap1\n      0x0100\n      exp\n      swap1\n      div\n      0xffffffffffffffffffffffffffffffffffffffff\n      and\n      dup2\n      jump\t// out\n        /* \"ExxaBaseStorage.sol\":381:402  address public owner_ */\n    tag_67:\n      0x03\n      0x00\n      swap1\n      sload\n      swap1\n      0x0100\n      exp\n      swap1\n      div\n      0xffffffffffffffffffffffffffffffffffffffff\n      and\n      dup2\n      jump\t// out\n        /* \"@openzeppelin/contracts/access/Ownable.sol\":2543:2758  function transferOwnership(address newOwner) public virtual onlyOwner {... */\n    tag_71:\n        /* \"@openzeppelin/contracts/access/Ownable.sol\":1531:1544  _checkOwner() */\n      tag_105\n        /* \"@openzeppelin/contracts/access/Ownable.sol\":1531:1542  _checkOwner */\n      tag_74\n        /* \"@openzeppelin/contracts/access/Ownable.sol\":1531:1544  _checkOwner() */\n      jump\t// in\n    tag_105:\n        /* \"@openzeppelin/contracts/access/Ownable.sol\":2647:2648  0 */\n      0x00\n        /* \"@openzeppelin/contracts/access/Ownable.sol\":2627:2649  newOwner == address(0) */\n      0xffffffffffffffffffffffffffffffffffffffff\n      and\n        /* \"@openzeppelin/contracts/access/Ownable.sol\":2627:2635  newOwner */\n      dup2\n        /* \"@openzeppelin/contracts/access/Ownable.sol\":2627:2649  newOwner == address(0) */\n      0xffffffffffffffffffffffffffffffffffffffff\n      and\n      sub\n        /* \"@openzeppelin/contracts/access/Ownable.sol\":2623:2714  if (newOwner == address(0)) {... */\n      tag_107\n      jumpi\n        /* \"@openzeppelin/contracts/access/Ownable.sol\":2700:2701  0 */\n      0x00\n        /* \"@openzeppelin/contracts/access/Ownable.sol\":2672:2703  OwnableInvalidOwner(address(0)) */\n      mload(0x40)\n      0x1e4fbdf700000000000000000000000000000000000000000000000000000000\n      dup2\n      mstore\n      0x04\n      add\n      tag_108\n      swap2\n      swap1\n      tag_28\n      jump\t// in\n    tag_108:\n      mload(0x40)\n      dup1\n      swap2\n      sub\n      swap1\n      revert\n        /* \"@openzeppelin/contracts/access/Ownable.sol\":2623:2714  if (newOwner == address(0)) {... */\n    tag_107:\n        /* \"@openzeppelin/contracts/access/Ownable.sol\":2723:2751  _transferOwnership(newOwner) */\n      tag_109\n        /* \"@openzeppelin/contracts/access/Ownable.sol\":2742:2750  newOwner */\n      dup2\n        /* \"@openzeppelin/contracts/access/Ownable.sol\":2723:2741  _transferOwnership */\n      tag_92\n        /* \"@openzeppelin/contracts/access/Ownable.sol\":2723:2751  _transferOwnership(newOwner) */\n      jump\t// in\n    tag_109:\n        /* \"@openzeppelin/contracts/access/Ownable.sol\":2543:2758  function transferOwnership(address newOwner) public virtual onlyOwner {... */\n      pop\n      jump\t// out\n        /* \"@openzeppelin/contracts/access/Ownable.sol\":1796:1958  function _checkOwner() internal view virtual {... */\n    tag_74:\n        /* \"@openzeppelin/contracts/access/Ownable.sol\":1866:1878  _msgSender() */\n      tag_111\n        /* \"@openzeppelin/contracts/access/Ownable.sol\":1866:1876  _msgSender */\n      tag_112\n        /* \"@openzeppelin/contracts/access/Ownable.sol\":1866:1878  _msgSender() */\n      jump\t// in\n    tag_111:\n        /* \"@openzeppelin/contracts/access/Ownable.sol\":1855:1878  owner() != _msgSender() */\n      0xffffffffffffffffffffffffffffffffffffffff\n      and\n        /* \"@openzeppelin/contracts/access/Ownable.sol\":1855:1862  owner() */\n      tag_113\n        /* \"@openzeppelin/contracts/access/Ownable.sol\":1855:1860  owner */\n      tag_54\n        /* \"@openzeppelin/contracts/access/Ownable.sol\":1855:1862  owner() */\n      jump\t// in\n    tag_113:\n        /* \"@openzeppelin/contracts/access/Ownable.sol\":1855:1878  owner() != _msgSender() */\n      0xffffffffffffffffffffffffffffffffffffffff\n      and\n      eq\n        /* \"@openzeppelin/contracts/access/Ownable.sol\":1851:1952  if (owner() != _msgSender()) {... */\n      tag_114\n      jumpi\n        /* \"@openzeppelin/contracts/access/Ownable.sol\":1928:1940  _msgSender() */\n      tag_115\n        /* \"@openzeppelin/contracts/access/Ownable.sol\":1928:1938  _msgSender */\n      tag_112\n        /* \"@openzeppelin/contracts/access/Ownable.sol\":1928:1940  _msgSender() */\n      jump\t// in\n    tag_115:\n        /* \"@openzeppelin/contracts/access/Ownable.sol\":1901:1941  OwnableUnauthorizedAccount(_msgSender()) */\n      mload(0x40)\n      0x118cdaa700000000000000000000000000000000000000000000000000000000\n      dup2\n      mstore\n      0x04\n      add\n      tag_116\n      swap2\n      swap1\n      tag_28\n      jump\t// in\n    tag_116:\n      mload(0x40)\n      dup1\n      swap2\n      sub\n      swap1\n      revert\n        /* \"@openzeppelin/contracts/access/Ownable.sol\":1851:1952  if (owner() != _msgSender()) {... */\n    tag_114:\n        /* \"@openzeppelin/contracts/access/Ownable.sol\":1796:1958  function _checkOwner() internal view virtual {... */\n      jump\t// out\n        /* \"@openzeppelin/contracts/access/Ownable.sol\":2912:3099  function _transferOwnership(address newOwner) internal virtual {... */\n    tag_92:\n        /* \"@openzeppelin/contracts/access/Ownable.sol\":2985:3001  address oldOwner */\n      0x00\n        /* \"@openzeppelin/contracts/access/Ownable.sol\":3004:3010  _owner */\n      0x00\n      0x00\n      swap1\n      sload\n      swap1\n      0x0100\n      exp\n      swap1\n      div\n      0xffffffffffffffffffffffffffffffffffffffff\n      and\n        /* \"@openzeppelin/contracts/access/Ownable.sol\":2985:3010  address oldOwner = _owner */\n      swap1\n      pop\n        /* \"@openzeppelin/contracts/access/Ownable.sol\":3029:3037  newOwner */\n      dup2\n        /* \"@openzeppelin/contracts/access/Ownable.sol\":3020:3026  _owner */\n      0x00\n      0x00\n        /* \"@openzeppelin/contracts/access/Ownable.sol\":3020:3037  _owner = newOwner */\n      0x0100\n      exp\n      dup2\n      sload\n      dup2\n      0xffffffffffffffffffffffffffffffffffffffff\n      mul\n      not\n      and\n      swap1\n      dup4\n      0xffffffffffffffffffffffffffffffffffffffff\n      and\n      mul\n      or\n      swap1\n      sstore\n      pop\n        /* \"@openzeppelin/contracts/access/Ownable.sol\":3083:3091  newOwner */\n      dup2\n        /* \"@openzeppelin/contracts/access/Ownable.sol\":3052:3092  OwnershipTransferred(oldOwner, newOwner) */\n      0xffffffffffffffffffffffffffffffffffffffff\n      and\n        /* \"@openzeppelin/contracts/access/Ownable.sol\":3073:3081  oldOwner */\n      dup2\n        /* \"@openzeppelin/contracts/access/Ownable.sol\":3052:3092  OwnershipTransferred(oldOwner, newOwner) */\n      0xffffffffffffffffffffffffffffffffffffffff\n      and\n      0x8be0079c531659141344cd1fd0a4f28419497f9722a3daafe3b4186f6b6457e0\n      mload(0x40)\n      mload(0x40)\n      dup1\n      swap2\n      sub\n      swap1\n      log3\n        /* \"@openzeppelin/contracts/access/Ownable.sol\":2975:3099  {... */\n      pop\n        /* \"@openzeppelin/contracts/access/Ownable.sol\":2912:3099  function _transferOwnership(address newOwner) internal virtual {... */\n      pop\n      jump\t// out\n        /* \"@openzeppelin/contracts/utils/Context.sol\":656:752  function _msgSender() internal view virtual returns (address) {... */\n    tag_112:\n        /* \"@openzeppelin/contracts/utils/Context.sol\":709:716  address */\n      0x00\n        /* \"@openzeppelin/contracts/utils/Context.sol\":735:745  msg.sender */\n      caller\n        /* \"@openzeppelin/contracts/utils/Context.sol\":728:745  return msg.sender */\n      swap1\n      pop\n        /* \"@openzeppelin/contracts/utils/Context.sol\":656:752  function _msgSender() internal view virtual returns (address) {... */\n      swap1\n      jump\t// out\n        /* \"#utility.yul\":88:205   */\n    tag_120:\n        /* \"#utility.yul\":197:198   */\n      0x00\n        /* \"#utility.yul\":194:195   */\n      0x00\n        /* \"#utility.yul\":187:199   */\n      revert\n        /* \"#utility.yul\":334:460   */\n    tag_122:\n        /* \"#utility.yul\":371:378   */\n      0x00\n        /* \"#utility.yul\":411:453   */\n      0xffffffffffffffffffffffffffffffffffffffff\n        /* \"#utility.yul\":404:409   */\n      dup3\n        /* \"#utility.yul\":400:454   */\n      and\n        /* \"#utility.yul\":389:454   */\n      swap1\n      pop\n        /* \"#utility.yul\":334:460   */\n      swap2\n      swap1\n      pop\n      jump\t// out\n        /* \"#utility.yul\":466:562   */\n    tag_123:\n        /* \"#utility.yul\":503:510   */\n      0x00\n        /* \"#utility.yul\":532:556   */\n      tag_146\n        /* \"#utility.yul\":550:555   */\n      dup3\n        /* \"#utility.yul\":532:556   */\n      tag_122\n      jump\t// in\n    tag_146:\n        /* \"#utility.yul\":521:556   */\n      swap1\n      pop\n        /* \"#utility.yul\":466:562   */\n      swap2\n      swap1\n      pop\n      jump\t// out\n        /* \"#utility.yul\":568:690   */\n    tag_124:\n        /* \"#utility.yul\":641:665   */\n      tag_148\n        /* \"#utility.yul\":659:664   */\n      dup2\n        /* \"#utility.yul\":641:665   */\n      tag_123\n      jump\t// in\n    tag_148:\n        /* \"#utility.yul\":634:639   */\n      dup2\n        /* \"#utility.yul\":631:666   */\n      eq\n        /* \"#utility.yul\":621:684   */\n      tag_149\n      jumpi\n        /* \"#utility.yul\":680:681   */\n      0x00\n        /* \"#utility.yul\":677:678   */\n      0x00\n        /* \"#utility.yul\":670:682   */\n      revert\n        /* \"#utility.yul\":621:684   */\n    tag_149:\n        /* \"#utility.yul\":568:690   */\n      pop\n      jump\t// out\n        /* \"#utility.yul\":696:835   */\n    tag_125:\n        /* \"#utility.yul\":742:747   */\n      0x00\n        /* \"#utility.yul\":780:786   */\n      dup2\n        /* \"#utility.yul\":767:787   */\n      calldataload\n        /* \"#utility.yul\":758:787   */\n      swap1\n      pop\n        /* \"#utility.yul\":796:829   */\n      tag_151\n        /* \"#utility.yul\":823:828   */\n      dup2\n        /* \"#utility.yul\":796:829   */\n      tag_124\n      jump\t// in\n    tag_151:\n        /* \"#utility.yul\":696:835   */\n      swap3\n      swap2\n      pop\n      pop\n      jump\t// out\n        /* \"#utility.yul\":841:1170   */\n    tag_23:\n        /* \"#utility.yul\":900:906   */\n      0x00\n        /* \"#utility.yul\":949:951   */\n      0x20\n        /* \"#utility.yul\":937:946   */\n      dup3\n        /* \"#utility.yul\":928:935   */\n      dup5\n        /* \"#utility.yul\":924:947   */\n      sub\n        /* \"#utility.yul\":920:952   */\n      slt\n        /* \"#utility.yul\":917:1036   */\n      iszero\n      tag_153\n      jumpi\n        /* \"#utility.yul\":955:1034   */\n      tag_154\n      tag_120\n      jump\t// in\n    tag_154:\n        /* \"#utility.yul\":917:1036   */\n    tag_153:\n        /* \"#utility.yul\":1075:1076   */\n      0x00\n        /* \"#utility.yul\":1100:1153   */\n      tag_155\n        /* \"#utility.yul\":1145:1152   */\n      dup5\n        /* \"#utility.yul\":1136:1142   */\n      dup3\n        /* \"#utility.yul\":1125:1134   */\n      dup6\n        /* \"#utility.yul\":1121:1143   */\n      add\n        /* \"#utility.yul\":1100:1153   */\n      tag_125\n      jump\t// in\n    tag_155:\n        /* \"#utility.yul\":1090:1153   */\n      swap2\n      pop\n        /* \"#utility.yul\":1046:1163   */\n      pop\n        /* \"#utility.yul\":841:1170   */\n      swap3\n      swap2\n      pop\n      pop\n      jump\t// out\n        /* \"#utility.yul\":1176:1294   */\n    tag_126:\n        /* \"#utility.yul\":1263:1287   */\n      tag_157\n        /* \"#utility.yul\":1281:1286   */\n      dup2\n        /* \"#utility.yul\":1263:1287   */\n      tag_123\n      jump\t// in\n    tag_157:\n        /* \"#utility.yul\":1258:1261   */\n      dup3\n        /* \"#utility.yul\":1251:1288   */\n      mstore\n        /* \"#utility.yul\":1176:1294   */\n      pop\n      pop\n      jump\t// out\n        /* \"#utility.yul\":1300:1522   */\n    tag_28:\n        /* \"#utility.yul\":1393:1397   */\n      0x00\n        /* \"#utility.yul\":1431:1433   */\n      0x20\n        /* \"#utility.yul\":1420:1429   */\n      dup3\n        /* \"#utility.yul\":1416:1434   */\n      add\n        /* \"#utility.yul\":1408:1434   */\n      swap1\n      pop\n        /* \"#utility.yul\":1444:1515   */\n      tag_159\n        /* \"#utility.yul\":1512:1513   */\n      0x00\n        /* \"#utility.yul\":1501:1510   */\n      dup4\n        /* \"#utility.yul\":1497:1514   */\n      add\n        /* \"#utility.yul\":1488:1494   */\n      dup5\n        /* \"#utility.yul\":1444:1515   */\n      tag_126\n      jump\t// in\n    tag_159:\n        /* \"#utility.yul\":1300:1522   */\n      swap3\n      swap2\n      pop\n      pop\n      jump\t// out\n        /* \"#utility.yul\":1528:1605   */\n    tag_127:\n        /* \"#utility.yul\":1565:1572   */\n      0x00\n        /* \"#utility.yul\":1594:1599   */\n      dup2\n        /* \"#utility.yul\":1583:1599   */\n      swap1\n      pop\n        /* \"#utility.yul\":1528:1605   */\n      swap2\n      swap1\n      pop\n      jump\t// out\n        /* \"#utility.yul\":1611:1733   */\n    tag_128:\n        /* \"#utility.yul\":1684:1708   */\n      tag_162\n        /* \"#utility.yul\":1702:1707   */\n      dup2\n        /* \"#utility.yul\":1684:1708   */\n      tag_127\n      jump\t// in\n    tag_162:\n        /* \"#utility.yul\":1677:1682   */\n      dup2\n        /* \"#utility.yul\":1674:1709   */\n      eq\n        /* \"#utility.yul\":1664:1727   */\n      tag_163\n      jumpi\n        /* \"#utility.yul\":1723:1724   */\n      0x00\n        /* \"#utility.yul\":1720:1721   */\n      0x00\n        /* \"#utility.yul\":1713:1725   */\n      revert\n        /* \"#utility.yul\":1664:1727   */\n    tag_163:\n        /* \"#utility.yul\":1611:1733   */\n      pop\n      jump\t// out\n        /* \"#utility.yul\":1739:1878   */\n    tag_129:\n        /* \"#utility.yul\":1785:1790   */\n      0x00\n        /* \"#utility.yul\":1823:1829   */\n      dup2\n        /* \"#utility.yul\":1810:1830   */\n      calldataload\n        /* \"#utility.yul\":1801:1830   */\n      swap1\n      pop\n        /* \"#utility.yul\":1839:1872   */\n      tag_165\n        /* \"#utility.yul\":1866:1871   */\n      dup2\n        /* \"#utility.yul\":1839:1872   */\n      tag_128\n      jump\t// in\n    tag_165:\n        /* \"#utility.yul\":1739:1878   */\n      swap3\n      swap2\n      pop\n      pop\n      jump\t// out\n        /* \"#utility.yul\":1884:2213   */\n    tag_31:\n        /* \"#utility.yul\":1943:1949   */\n      0x00\n        /* \"#utility.yul\":1992:1994   */\n      0x20\n        /* \"#utility.yul\":1980:1989   */\n      dup3\n        /* \"#utility.yul\":1971:1978   */\n      dup5\n        /* \"#utility.yul\":1967:1990   */\n      sub\n        /* \"#utility.yul\":1963:1995   */\n      slt\n        /* \"#utility.yul\":1960:2079   */\n      iszero\n      tag_167\n      jumpi\n        /* \"#utility.yul\":1998:2077   */\n      tag_168\n      tag_120\n      jump\t// in\n    tag_168:\n        /* \"#utility.yul\":1960:2079   */\n    tag_167:\n        /* \"#utility.yul\":2118:2119   */\n      0x00\n        /* \"#utility.yul\":2143:2196   */\n      tag_169\n        /* \"#utility.yul\":2188:2195   */\n      dup5\n        /* \"#utility.yul\":2179:2185   */\n      dup3\n        /* \"#utility.yul\":2168:2177   */\n      dup6\n        /* \"#utility.yul\":2164:2186   */\n      add\n        /* \"#utility.yul\":2143:2196   */\n      tag_129\n      jump\t// in\n    tag_169:\n        /* \"#utility.yul\":2133:2196   */\n      swap2\n      pop\n        /* \"#utility.yul\":2089:2206   */\n      pop\n        /* \"#utility.yul\":1884:2213   */\n      swap3\n      swap2\n      pop\n      pop\n      jump\t// out\n        /* \"#utility.yul\":2219:2309   */\n    tag_130:\n        /* \"#utility.yul\":2253:2260   */\n      0x00\n        /* \"#utility.yul\":2296:2301   */\n      dup2\n        /* \"#utility.yul\":2289:2302   */\n      iszero\n        /* \"#utility.yul\":2282:2303   */\n      iszero\n        /* \"#utility.yul\":2271:2303   */\n      swap1\n      pop\n        /* \"#utility.yul\":2219:2309   */\n      swap2\n      swap1\n      pop\n      jump\t// out\n        /* \"#utility.yul\":2315:2431   */\n    tag_131:\n        /* \"#utility.yul\":2385:2406   */\n      tag_172\n        /* \"#utility.yul\":2400:2405   */\n      dup2\n        /* \"#utility.yul\":2385:2406   */\n      tag_130\n      jump\t// in\n    tag_172:\n        /* \"#utility.yul\":2378:2383   */\n      dup2\n        /* \"#utility.yul\":2375:2407   */\n      eq\n        /* \"#utility.yul\":2365:2425   */\n      tag_173\n      jumpi\n        /* \"#utility.yul\":2421:2422   */\n      0x00\n        /* \"#utility.yul\":2418:2419   */\n      0x00\n        /* \"#utility.yul\":2411:2423   */\n      revert\n        /* \"#utility.yul\":2365:2425   */\n    tag_173:\n        /* \"#utility.yul\":2315:2431   */\n      pop\n      jump\t// out\n        /* \"#utility.yul\":2437:2570   */\n    tag_132:\n        /* \"#utility.yul\":2480:2485   */\n      0x00\n        /* \"#utility.yul\":2518:2524   */\n      dup2\n        /* \"#utility.yul\":2505:2525   */\n      calldataload\n        /* \"#utility.yul\":2496:2525   */\n      swap1\n      pop\n        /* \"#utility.yul\":2534:2564   */\n      tag_175\n        /* \"#utility.yul\":2558:2563   */\n      dup2\n        /* \"#utility.yul\":2534:2564   */\n      tag_131\n      jump\t// in\n    tag_175:\n        /* \"#utility.yul\":2437:2570   */\n      swap3\n      swap2\n      pop\n      pop\n      jump\t// out\n        /* \"#utility.yul\":2576:2899   */\n    tag_35:\n        /* \"#utility.yul\":2632:2638   */\n      0x00\n        /* \"#utility.yul\":2681:2683   */\n      0x20\n        /* \"#utility.yul\":2669:2678   */\n      dup3\n        /* \"#utility.yul\":2660:2667   */\n      dup5\n        /* \"#utility.yul\":2656:2679   */\n      sub\n        /* \"#utility.yul\":2652:2684   */\n      slt\n        /* \"#utility.yul\":2649:2768   */\n      iszero\n      tag_177\n      jumpi\n        /* \"#utility.yul\":2687:2766   */\n      tag_178\n      tag_120\n      jump\t// in\n    tag_178:\n        /* \"#utility.yul\":2649:2768   */\n    tag_177:\n        /* \"#utility.yul\":2807:2808   */\n      0x00\n        /* \"#utility.yul\":2832:2882   */\n      tag_179\n        /* \"#utility.yul\":2874:2881   */\n      dup5\n        /* \"#utility.yul\":2865:2871   */\n      dup3\n        /* \"#utility.yul\":2854:2863   */\n      dup6\n        /* \"#utility.yul\":2850:2872   */\n      add\n        /* \"#utility.yul\":2832:2882   */\n      tag_132\n      jump\t// in\n    tag_179:\n        /* \"#utility.yul\":2822:2882   */\n      swap2\n      pop\n        /* \"#utility.yul\":2778:2892   */\n      pop\n        /* \"#utility.yul\":2576:2899   */\n      swap3\n      swap2\n      pop\n      pop\n      jump\t// out\n        /* \"#utility.yul\":2905:3014   */\n    tag_133:\n        /* \"#utility.yul\":2986:3007   */\n      tag_181\n        /* \"#utility.yul\":3001:3006   */\n      dup2\n        /* \"#utility.yul\":2986:3007   */\n      tag_130\n      jump\t// in\n    tag_181:\n        /* \"#utility.yul\":2981:2984   */\n      dup3\n        /* \"#utility.yul\":2974:3008   */\n      mstore\n        /* \"#utility.yul\":2905:3014   */\n      pop\n      pop\n      jump\t// out\n        /* \"#utility.yul\":3020:3230   */\n    tag_40:\n        /* \"#utility.yul\":3107:3111   */\n      0x00\n        /* \"#utility.yul\":3145:3147   */\n      0x20\n        /* \"#utility.yul\":3134:3143   */\n      dup3\n        /* \"#utility.yul\":3130:3148   */\n      add\n        /* \"#utility.yul\":3122:3148   */\n      swap1\n      pop\n        /* \"#utility.yul\":3158:3223   */\n      tag_183\n        /* \"#utility.yul\":3220:3221   */\n      0x00\n        /* \"#utility.yul\":3209:3218   */\n      dup4\n        /* \"#utility.yul\":3205:3222   */\n      add\n        /* \"#utility.yul\":3196:3202   */\n      dup5\n        /* \"#utility.yul\":3158:3223   */\n      tag_133\n      jump\t// in\n    tag_183:\n        /* \"#utility.yul\":3020:3230   */\n      swap3\n      swap2\n      pop\n      pop\n      jump\t// out\n        /* \"#utility.yul\":3236:3354   */\n    tag_134:\n        /* \"#utility.yul\":3323:3347   */\n      tag_185\n        /* \"#utility.yul\":3341:3346   */\n      dup2\n        /* \"#utility.yul\":3323:3347   */\n      tag_127\n      jump\t// in\n    tag_185:\n        /* \"#utility.yul\":3318:3321   */\n      dup3\n        /* \"#utility.yul\":3311:3348   */\n      mstore\n        /* \"#utility.yul\":3236:3354   */\n      pop\n      pop\n      jump\t// out\n        /* \"#utility.yul\":3360:3582   */\n    tag_59:\n        /* \"#utility.yul\":3453:3457   */\n      0x00\n        /* \"#utility.yul\":3491:3493   */\n      0x20\n        /* \"#utility.yul\":3480:3489   */\n      dup3\n        /* \"#utility.yul\":3476:3494   */\n      add\n        /* \"#utility.yul\":3468:3494   */\n      swap1\n      pop\n        /* \"#utility.yul\":3504:3575   */\n      tag_187\n        /* \"#utility.yul\":3572:3573   */\n      0x00\n        /* \"#utility.yul\":3561:3570   */\n      dup4\n        /* \"#utility.yul\":3557:3574   */\n      add\n        /* \"#utility.yul\":3548:3554   */\n      dup5\n        /* \"#utility.yul\":3504:3575   */\n      tag_134\n      jump\t// in\n    tag_187:\n        /* \"#utility.yul\":3360:3582   */\n      swap3\n      swap2\n      pop\n      pop\n      jump\t// out\n        /* \"#utility.yul\":3588:3757   */\n    tag_135:\n        /* \"#utility.yul\":3672:3683   */\n      0x00\n        /* \"#utility.yul\":3706:3712   */\n      dup3\n        /* \"#utility.yul\":3701:3704   */\n      dup3\n        /* \"#utility.yul\":3694:3713   */\n      mstore\n        /* \"#utility.yul\":3746:3750   */\n      0x20\n        /* \"#utility.yul\":3741:3744   */\n      dup3\n        /* \"#utility.yul\":3737:3751   */\n      add\n        /* \"#utility.yul\":3722:3751   */\n      swap1\n      pop\n        /* \"#utility.yul\":3588:3757   */\n      swap3\n      swap2\n      pop\n      pop\n      jump\t// out\n        /* \"#utility.yul\":3763:3925   */\n    tag_136:\n        /* \"#utility.yul\":3903:3917   */\n      0x46656520746f6f20686967680000000000000000000000000000000000000000\n        /* \"#utility.yul\":3899:3900   */\n      0x00\n        /* \"#utility.yul\":3891:3897   */\n      dup3\n        /* \"#utility.yul\":3887:3901   */\n      add\n        /* \"#utility.yul\":3880:3918   */\n      mstore\n        /* \"#utility.yul\":3763:3925   */\n      pop\n      jump\t// out\n        /* \"#utility.yul\":3931:4297   */\n    tag_137:\n        /* \"#utility.yul\":4073:4076   */\n      0x00\n        /* \"#utility.yul\":4094:4161   */\n      tag_191\n        /* \"#utility.yul\":4158:4160   */\n      0x0c\n        /* \"#utility.yul\":4153:4156   */\n      dup4\n        /* \"#utility.yul\":4094:4161   */\n      tag_135\n      jump\t// in\n    tag_191:\n        /* \"#utility.yul\":4087:4161   */\n      swap2\n      pop\n        /* \"#utility.yul\":4170:4263   */\n      tag_192\n        /* \"#utility.yul\":4259:4262   */\n      dup3\n        /* \"#utility.yul\":4170:4263   */\n      tag_136\n      jump\t// in\n    tag_192:\n        /* \"#utility.yul\":4288:4290   */\n      0x20\n        /* \"#utility.yul\":4283:4286   */\n      dup3\n        /* \"#utility.yul\":4279:4291   */\n      add\n        /* \"#utility.yul\":4272:4291   */\n      swap1\n      pop\n        /* \"#utility.yul\":3931:4297   */\n      swap2\n      swap1\n      pop\n      jump\t// out\n        /* \"#utility.yul\":4303:4722   */\n    tag_82:\n        /* \"#utility.yul\":4469:4473   */\n      0x00\n        /* \"#utility.yul\":4507:4509   */\n      0x20\n        /* \"#utility.yul\":4496:4505   */\n      dup3\n        /* \"#utility.yul\":4492:4510   */\n      add\n        /* \"#utility.yul\":4484:4510   */\n      swap1\n      pop\n        /* \"#utility.yul\":4556:4565   */\n      dup2\n        /* \"#utility.yul\":4550:4554   */\n      dup2\n        /* \"#utility.yul\":4546:4566   */\n      sub\n        /* \"#utility.yul\":4542:4543   */\n      0x00\n        /* \"#utility.yul\":4531:4540   */\n      dup4\n        /* \"#utility.yul\":4527:4544   */\n      add\n        /* \"#utility.yul\":4520:4567   */\n      mstore\n        /* \"#utility.yul\":4584:4715   */\n      tag_194\n        /* \"#utility.yul\":4710:4714   */\n      dup2\n        /* \"#utility.yul\":4584:4715   */\n      tag_137\n      jump\t// in\n    tag_194:\n        /* \"#utility.yul\":4576:4715   */\n      swap1\n      pop\n        /* \"#utility.yul\":4303:4722   */\n      swap2\n      swap1\n      pop\n      jump\t// out\n        /* \"#utility.yul\":4728:4900   */\n    tag_138:\n        /* \"#utility.yul\":4868:4892   */\n      0x496e76616c6964206f7261636c65206164647265737300000000000000000000\n        /* \"#utility.yul\":4864:4865   */\n      0x00\n        /* \"#utility.yul\":4856:4862   */\n      dup3\n        /* \"#utility.yul\":4852:4866   */\n      add\n        /* \"#utility.yul\":4845:4893   */\n      mstore\n        /* \"#utility.yul\":4728:4900   */\n      pop\n      jump\t// out\n        /* \"#utility.yul\":4906:5272   */\n    tag_139:\n        /* \"#utility.yul\":5048:5051   */\n      0x00\n        /* \"#utility.yul\":5069:5136   */\n      tag_197\n        /* \"#utility.yul\":5133:5135   */\n      0x16\n        /* \"#utility.yul\":5128:5131   */\n      dup4\n        /* \"#utility.yul\":5069:5136   */\n      tag_135\n      jump\t// in\n    tag_197:\n        /* \"#utility.yul\":5062:5136   */\n      swap2\n      pop\n        /* \"#utility.yul\":5145:5238   */\n      tag_198\n        /* \"#utility.yul\":5234:5237   */\n      dup3\n        /* \"#utility.yul\":5145:5238   */\n      tag_138\n      jump\t// in\n    tag_198:\n        /* \"#utility.yul\":5263:5265   */\n      0x20\n        /* \"#utility.yul\":5258:5261   */\n      dup3\n        /* \"#utility.yul\":5254:5266   */\n      add\n        /* \"#utility.yul\":5247:5266   */\n      swap1\n      pop\n        /* \"#utility.yul\":4906:5272   */\n      swap2\n      swap1\n      pop\n      jump\t// out\n        /* \"#utility.yul\":5278:5697   */\n    tag_98:\n        /* \"#utility.yul\":5444:5448   */\n      0x00\n        /* \"#utility.yul\":5482:5484   */\n      0x20\n        /* \"#utility.yul\":5471:5480   */\n      dup3\n        /* \"#utility.yul\":5467:5485   */\n      add\n        /* \"#utility.yul\":5459:5485   */\n      swap1\n      pop\n        /* \"#utility.yul\":5531:5540   */\n      dup2\n        /* \"#utility.yul\":5525:5529   */\n      dup2\n        /* \"#utility.yul\":5521:5541   */\n      sub\n        /* \"#utility.yul\":5517:5518   */\n      0x00\n        /* \"#utility.yul\":5506:5515   */\n      dup4\n        /* \"#utility.yul\":5502:5519   */\n      add\n        /* \"#utility.yul\":5495:5542   */\n      mstore\n        /* \"#utility.yul\":5559:5690   */\n      tag_200\n        /* \"#utility.yul\":5685:5689   */\n      dup2\n        /* \"#utility.yul\":5559:5690   */\n      tag_139\n      jump\t// in\n    tag_200:\n        /* \"#utility.yul\":5551:5690   */\n      swap1\n      pop\n        /* \"#utility.yul\":5278:5697   */\n      swap2\n      swap1\n      pop\n      jump\t// out\n\n    auxdata: 0xa2646970667358221220c82cd7e6ef20b470c762ca25acc01f12a4e3894bb7cf8804185d165a38d9781864736f6c634300081d0033\n}\n",
				"bytecode": {
					"linkReferences": {},
					"object": "60806040525f60075f6101000a81548160ff021916908315150217905550348015610028575f5ffd5b50604051610eff380380610eff833981810160405281019061004a91906102e1565b80825f73ffffffffffffffffffffffffffffffffffffffff168173ffffffffffffffffffffffffffffffffffffffff16036100bc575f6040517f1e4fbdf70000000000000000000000000000000000000000000000000000000081526004016100b3919061032e565b60405180910390fd5b6100cb816101c260201b60201c565b505f73ffffffffffffffffffffffffffffffffffffffff168173ffffffffffffffffffffffffffffffffffffffff160361013a576040517f08c379a0000000000000000000000000000000000000000000000000000000008152600401610131906103a1565b60405180910390fd5b8060025f6101000a81548173ffffffffffffffffffffffffffffffffffffffff021916908373ffffffffffffffffffffffffffffffffffffffff1602179055503360035f6101000a81548173ffffffffffffffffffffffffffffffffffffffff021916908373ffffffffffffffffffffffffffffffffffffffff1602179055505050506103bf565b5f5f5f9054906101000a900473ffffffffffffffffffffffffffffffffffffffff169050815f5f6101000a81548173ffffffffffffffffffffffffffffffffffffffff021916908373ffffffffffffffffffffffffffffffffffffffff1602179055508173ffffffffffffffffffffffffffffffffffffffff168173ffffffffffffffffffffffffffffffffffffffff167f8be0079c531659141344cd1fd0a4f28419497f9722a3daafe3b4186f6b6457e060405160405180910390a35050565b5f5ffd5b5f73ffffffffffffffffffffffffffffffffffffffff82169050919050565b5f6102b082610287565b9050919050565b6102c0816102a6565b81146102ca575f5ffd5b50565b5f815190506102db816102b7565b92915050565b5f5f604083850312156102f7576102f6610283565b5b5f610304858286016102cd565b9250506020610315858286016102cd565b9150509250929050565b610328816102a6565b82525050565b5f6020820190506103415f83018461031f565b92915050565b5f82825260208201905092915050565b7f496e76616c6964205553445420616464726573730000000000000000000000005f82015250565b5f61038b601483610347565b915061039682610357565b602082019050919050565b5f6020820190508181035f8301526103b88161037f565b9050919050565b610b33806103cc5f395ff3fe608060405234801561000f575f5ffd5b50600436106100f3575f3560e01c80637dc0d1d011610095578063ab87982711610064578063ab87982714610237578063c7b6084c14610255578063e766307914610273578063f2fde38b14610291576100f3565b80637dc0d1d0146101ad57806382d52c1e146101cb5780638da5cb5b146101fb5780638e6b409e14610219576100f3565b8063543f66a4116100d1578063543f66a41461014d57806360da3e8314610169578063715018a6146101875780637adbf97314610191576100f3565b806302262ced146100f75780632f48ab7d14610113578063490ae21014610131575b5f5ffd5b610111600480360381019061010c91906108bc565b6102ad565b005b61011b61032f565b60405161012891906108f6565b60405180910390f35b61014b60048036038101906101469190610942565b610354565b005b610167600480360381019061016291906109a2565b6103e2565b005b61017161043d565b60405161017e91906109dc565b60405180910390f35b61018f61044f565b005b6101ab60048036038101906101a691906108bc565b610462565b005b6101b5610553565b6040516101c291906108f6565b60405180910390f35b6101e560048036038101906101e091906108bc565b610579565b6040516101f291906109dc565b60405180910390f35b61020361060e565b60405161021091906108f6565b60405180910390f35b610221610635565b60405161022e9190610a04565b60405180910390f35b61023f61063b565b60405161024c9190610a04565b60405180910390f35b61025d610641565b60405161026a91906108f6565b60405180910390f35b61027b610666565b60405161028891906108f6565b60405180910390f35b6102ab60048036038101906102a691906108bc565b61068b565b005b6102b561070f565b8060085f6101000a81548173ffffffffffffffffffffffffffffffffffffffff021916908373ffffffffffffffffffffffffffffffffffffffff1602179055507f8f044878f4d84ccc4d80555f24f9428c1d9297c48b7c7a17e6a50263be17ef548160405161032491906108f6565b60405180910390a150565b60025f9054906101000a900473ffffffffffffffffffffffffffffffffffffffff1681565b61035c61070f565b6101f48111156103a1576040517f08c379a000000000000000000000000000000000000000000000000000000000815260040161039890610a77565b60405180910390fd5b806009819055507f206dd15151fcc83315419fbe53a71fcf9c09da803767d3dd05f7874e1b9bf645816040516103d79190610a04565b60405180910390a150565b6103ea61070f565b8060075f6101000a81548160ff0219169083151502179055507f5ef34f53269a04b5b817e5be24a51ba6b477118b399ec9dd5b2baf5b299563dc8160405161043291906109dc565b60405180910390a150565b60075f9054906101000a900460ff1681565b61045761070f565b6104605f610796565b565b61046a61070f565b5f73ffffffffffffffffffffffffffffffffffffffff168173ffffffffffffffffffffffffffffffffffffffff16036104d8576040517f08c379a00000000000000000000000000000000000000000000000000000000081526004016104cf90610adf565b60405180910390fd5b80600760016101000a81548173ffffffffffffffffffffffffffffffffffffffff021916908373ffffffffffffffffffffffffffffffffffffffff1602179055507f3df77beb5db05fcdd70a30fc8adf3f83f9501b68579455adbd100b81809403948160405161054891906108f6565b60405180910390a150565b600760019054906101000a900473ffffffffffffffffffffffffffffffffffffffff1681565b5f61058261060e565b73ffffffffffffffffffffffffffffffffffffffff168273ffffffffffffffffffffffffffffffffffffffff161480610607575060085f9054906101000a900473ffffffffffffffffffffffffffffffffffffffff1673ffffffffffffffffffffffffffffffffffffffff168273ffffffffffffffffffffffffffffffffffffffff16145b9050919050565b5f5f5f9054906101000a900473ffffffffffffffffffffffffffffffffffffffff16905090565b60045481565b60095481565b60085f9054906101000a900473ffffffffffffffffffffffffffffffffffffffff1681565b60035f9054906101000a900473ffffffffffffffffffffffffffffffffffffffff1681565b61069361070f565b5f73ffffffffffffffffffffffffffffffffffffffff168173ffffffffffffffffffffffffffffffffffffffff1603610703575f6040517f1e4fbdf70000000000000000000000000000000000000000000000000000000081526004016106fa91906108f6565b60405180910390fd5b61070c81610796565b50565b610717610857565b73ffffffffffffffffffffffffffffffffffffffff1661073561060e565b73ffffffffffffffffffffffffffffffffffffffff161461079457610758610857565b6040517f118cdaa700000000000000000000000000000000000000000000000000000000815260040161078b91906108f6565b60405180910390fd5b565b5f5f5f9054906101000a900473ffffffffffffffffffffffffffffffffffffffff169050815f5f6101000a81548173ffffffffffffffffffffffffffffffffffffffff021916908373ffffffffffffffffffffffffffffffffffffffff1602179055508173ffffffffffffffffffffffffffffffffffffffff168173ffffffffffffffffffffffffffffffffffffffff167f8be0079c531659141344cd1fd0a4f28419497f9722a3daafe3b4186f6b6457e060405160405180910390a35050565b5f33905090565b5f5ffd5b5f73ffffffffffffffffffffffffffffffffffffffff82169050919050565b5f61088b82610862565b9050919050565b61089b81610881565b81146108a5575f5ffd5b50565b5f813590506108b681610892565b92915050565b5f602082840312156108d1576108d061085e565b5b5f6108de848285016108a8565b91505092915050565b6108f081610881565b82525050565b5f6020820190506109095f8301846108e7565b92915050565b5f819050919050565b6109218161090f565b811461092b575f5ffd5b50565b5f8135905061093c81610918565b92915050565b5f602082840312156109575761095661085e565b5b5f6109648482850161092e565b91505092915050565b5f8115159050919050565b6109818161096d565b811461098b575f5ffd5b50565b5f8135905061099c81610978565b92915050565b5f602082840312156109b7576109b661085e565b5b5f6109c48482850161098e565b91505092915050565b6109d68161096d565b82525050565b5f6020820190506109ef5f8301846109cd565b92915050565b6109fe8161090f565b82525050565b5f602082019050610a175f8301846109f5565b92915050565b5f82825260208201905092915050565b7f46656520746f6f206869676800000000000000000000000000000000000000005f82015250565b5f610a61600c83610a1d565b9150610a6c82610a2d565b602082019050919050565b5f6020820190508181035f830152610a8e81610a55565b9050919050565b7f496e76616c6964206f7261636c652061646472657373000000000000000000005f82015250565b5f610ac9601683610a1d565b9150610ad482610a95565b602082019050919050565b5f6020820190508181035f830152610af681610abd565b905091905056fea2646970667358221220c82cd7e6ef20b470c762ca25acc01f12a4e3894bb7cf8804185d165a38d9781864736f6c634300081d0033",
					"opcodes": "PUSH1 0x80 PUSH1 0x40 MSTORE PUSH0 PUSH1 0x7 PUSH0 PUSH2 0x100 EXP DUP2 SLOAD DUP2 PUSH1 0xFF MUL NOT AND SWAP1 DUP4 ISZERO ISZERO MUL OR SWAP1 SSTORE POP CALLVALUE DUP1 ISZERO PUSH2 0x28 JUMPI PUSH0 PUSH0 REVERT JUMPDEST POP PUSH1 0x40 MLOAD PUSH2 0xEFF CODESIZE SUB DUP1 PUSH2 0xEFF DUP4 CODECOPY DUP2 DUP2 ADD PUSH1 0x40 MSTORE DUP2 ADD SWAP1 PUSH2 0x4A SWAP2 SWAP1 PUSH2 0x2E1 JUMP JUMPDEST DUP1 DUP3 PUSH0 PUSH20 0xFFFFFFFFFFFFFFFFFFFFFFFFFFFFFFFFFFFFFFFF AND DUP2 PUSH20 0xFFFFFFFFFFFFFFFFFFFFFFFFFFFFFFFFFFFFFFFF AND SUB PUSH2 0xBC JUMPI PUSH0 PUSH1 0x40 MLOAD PUSH32 0x1E4FBDF700000000000000000000000000000000000000000000000000000000 DUP2 MSTORE PUSH1 0x4 ADD PUSH2 0xB3 SWAP2 SWAP1 PUSH2 0x32E JUMP JUMPDEST PUSH1 0x40 MLOAD DUP1 SWAP2 SUB SWAP1 REVERT JUMPDEST PUSH2 0xCB DUP2 PUSH2 0x1C2 PUSH1 0x20 SHL PUSH1 0x20 SHR JUMP JUMPDEST POP PUSH0 PUSH20 0xFFFFFFFFFFFFFFFFFFFFFFFFFFFFFFFFFFFFFFFF AND DUP2 PUSH20 0xFFFFFFFFFFFFFFFFFFFFFFFFFFFFFFFFFFFFFFFF AND SUB PUSH2 0x13A JUMPI PUSH1 0x40 MLOAD PUSH32 0x8C379A000000000000000000000000000000000000000000000000000000000 DUP2 MSTORE PUSH1 0x4 ADD PUSH2 0x131 SWAP1 PUSH2 0x3A1 JUMP JUMPDEST PUSH1 0x40 MLOAD DUP1 SWAP2 SUB SWAP1 REVERT JUMPDEST DUP1 PUSH1 0x2 PUSH0 PUSH2 0x100 EXP DUP2 SLOAD DUP2 PUSH20 0xFFFFFFFFFFFFFFFFFFFFFFFFFFFFFFFFFFFFFFFF MUL NOT AND SWAP1 DUP4 PUSH20 0xFFFFFFFFFFFFFFFFFFFFFFFFFFFFFFFFFFFFFFFF AND MUL OR SWAP1 SSTORE POP CALLER PUSH1 0x3 PUSH0 PUSH2 0x100 EXP DUP2 SLOAD DUP2 PUSH20 0xFFFFFFFFFFFFFFFFFFFFFFFFFFFFFFFFFFFFFFFF MUL NOT AND SWAP1 DUP4 PUSH20 0xFFFFFFFFFFFFFFFFFFFFFFFFFFFFFFFFFFFFFFFF AND MUL OR SWAP1 SSTORE POP POP POP POP PUSH2 0x3BF JUMP JUMPDEST PUSH0 PUSH0 PUSH0 SWAP1 SLOAD SWAP1 PUSH2 0x100 EXP SWAP1 DIV PUSH20 0xFFFFFFFFFFFFFFFFFFFFFFFFFFFFFFFFFFFFFFFF AND SWAP1 POP DUP2 PUSH0 PUSH0 PUSH2 0x100 EXP DUP2 SLOAD DUP2 PUSH20 0xFFFFFFFFFFFFFFFFFFFFFFFFFFFFFFFFFFFFFFFF MUL NOT AND SWAP1 DUP4 PUSH20 0xFFFFFFFFFFFFFFFFFFFFFFFFFFFFFFFFFFFFFFFF AND MUL OR SWAP1 SSTORE POP DUP2 PUSH20 0xFFFFFFFFFFFFFFFFFFFFFFFFFFFFFFFFFFFFFFFF AND DUP2 PUSH20 0xFFFFFFFFFFFFFFFFFFFFFFFFFFFFFFFFFFFFFFFF AND PUSH32 0x8BE0079C531659141344CD1FD0A4F28419497F9722A3DAAFE3B4186F6B6457E0 PUSH1 0x40 MLOAD PUSH1 0x40 MLOAD DUP1 SWAP2 SUB SWAP1 LOG3 POP POP JUMP JUMPDEST PUSH0 PUSH0 REVERT JUMPDEST PUSH0 PUSH20 0xFFFFFFFFFFFFFFFFFFFFFFFFFFFFFFFFFFFFFFFF DUP3 AND SWAP1 POP SWAP2 SWAP1 POP JUMP JUMPDEST PUSH0 PUSH2 0x2B0 DUP3 PUSH2 0x287 JUMP JUMPDEST SWAP1 POP SWAP2 SWAP1 POP JUMP JUMPDEST PUSH2 0x2C0 DUP2 PUSH2 0x2A6 JUMP JUMPDEST DUP2 EQ PUSH2 0x2CA JUMPI PUSH0 PUSH0 REVERT JUMPDEST POP JUMP JUMPDEST PUSH0 DUP2 MLOAD SWAP1 POP PUSH2 0x2DB DUP2 PUSH2 0x2B7 JUMP JUMPDEST SWAP3 SWAP2 POP POP JUMP JUMPDEST PUSH0 PUSH0 PUSH1 0x40 DUP4 DUP6 SUB SLT ISZERO PUSH2 0x2F7 JUMPI PUSH2 0x2F6 PUSH2 0x283 JUMP JUMPDEST JUMPDEST PUSH0 PUSH2 0x304 DUP6 DUP3 DUP7 ADD PUSH2 0x2CD JUMP JUMPDEST SWAP3 POP POP PUSH1 0x20 PUSH2 0x315 DUP6 DUP3 DUP7 ADD PUSH2 0x2CD JUMP JUMPDEST SWAP2 POP POP SWAP3 POP SWAP3 SWAP1 POP JUMP JUMPDEST PUSH2 0x328 DUP2 PUSH2 0x2A6 JUMP JUMPDEST DUP3 MSTORE POP POP JUMP JUMPDEST PUSH0 PUSH1 0x20 DUP3 ADD SWAP1 POP PUSH2 0x341 PUSH0 DUP4 ADD DUP5 PUSH2 0x31F JUMP JUMPDEST SWAP3 SWAP2 POP POP JUMP JUMPDEST PUSH0 DUP3 DUP3 MSTORE PUSH1 0x20 DUP3 ADD SWAP1 POP SWAP3 SWAP2 POP POP JUMP JUMPDEST PUSH32 0x496E76616C696420555344542061646472657373000000000000000000000000 PUSH0 DUP3 ADD MSTORE POP JUMP JUMPDEST PUSH0 PUSH2 0x38B PUSH1 0x14 DUP4 PUSH2 0x347 JUMP JUMPDEST SWAP2 POP PUSH2 0x396 DUP3 PUSH2 0x357 JUMP JUMPDEST PUSH1 0x20 DUP3 ADD SWAP1 POP SWAP2 SWAP1 POP JUMP JUMPDEST PUSH0 PUSH1 0x20 DUP3 ADD SWAP1 POP DUP2 DUP2 SUB PUSH0 DUP4 ADD MSTORE PUSH2 0x3B8 DUP2 PUSH2 0x37F JUMP JUMPDEST SWAP1 POP SWAP2 SWAP1 POP JUMP JUMPDEST PUSH2 0xB33 DUP1 PUSH2 0x3CC PUSH0 CODECOPY PUSH0 RETURN INVALID PUSH1 0x80 PUSH1 0x40 MSTORE CALLVALUE DUP1 ISZERO PUSH2 0xF JUMPI PUSH0 PUSH0 REVERT JUMPDEST POP PUSH1 0x4 CALLDATASIZE LT PUSH2 0xF3 JUMPI PUSH0 CALLDATALOAD PUSH1 0xE0 SHR DUP1 PUSH4 0x7DC0D1D0 GT PUSH2 0x95 JUMPI DUP1 PUSH4 0xAB879827 GT PUSH2 0x64 JUMPI DUP1 PUSH4 0xAB879827 EQ PUSH2 0x237 JUMPI DUP1 PUSH4 0xC7B6084C EQ PUSH2 0x255 JUMPI DUP1 PUSH4 0xE7663079 EQ PUSH2 0x273 JUMPI DUP1 PUSH4 0xF2FDE38B EQ PUSH2 0x291 JUMPI PUSH2 0xF3 JUMP JUMPDEST DUP1 PUSH4 0x7DC0D1D0 EQ PUSH2 0x1AD JUMPI DUP1 PUSH4 0x82D52C1E EQ PUSH2 0x1CB JUMPI DUP1 PUSH4 0x8DA5CB5B EQ PUSH2 0x1FB JUMPI DUP1 PUSH4 0x8E6B409E EQ PUSH2 0x219 JUMPI PUSH2 0xF3 JUMP JUMPDEST DUP1 PUSH4 0x543F66A4 GT PUSH2 0xD1 JUMPI DUP1 PUSH4 0x543F66A4 EQ PUSH2 0x14D JUMPI DUP1 PUSH4 0x60DA3E83 EQ PUSH2 0x169 JUMPI DUP1 PUSH4 0x715018A6 EQ PUSH2 0x187 JUMPI DUP1 PUSH4 0x7ADBF973 EQ PUSH2 0x191 JUMPI PUSH2 0xF3 JUMP JUMPDEST DUP1 PUSH4 0x2262CED EQ PUSH2 0xF7 JUMPI DUP1 PUSH4 0x2F48AB7D EQ PUSH2 0x113 JUMPI DUP1 PUSH4 0x490AE210 EQ PUSH2 0x131 JUMPI JUMPDEST PUSH0 PUSH0 REVERT JUMPDEST PUSH2 0x111 PUSH1 0x4 DUP1 CALLDATASIZE SUB DUP2 ADD SWAP1 PUSH2 0x10C SWAP2 SWAP1 PUSH2 0x8BC JUMP JUMPDEST PUSH2 0x2AD JUMP JUMPDEST STOP JUMPDEST PUSH2 0x11B PUSH2 0x32F JUMP JUMPDEST PUSH1 0x40 MLOAD PUSH2 0x128 SWAP2 SWAP1 PUSH2 0x8F6 JUMP JUMPDEST PUSH1 0x40 MLOAD DUP1 SWAP2 SUB SWAP1 RETURN JUMPDEST PUSH2 0x14B PUSH1 0x4 DUP1 CALLDATASIZE SUB DUP2 ADD SWAP1 PUSH2 0x146 SWAP2 SWAP1 PUSH2 0x942 JUMP JUMPDEST PUSH2 0x354 JUMP JUMPDEST STOP JUMPDEST PUSH2 0x167 PUSH1 0x4 DUP1 CALLDATASIZE SUB DUP2 ADD SWAP1 PUSH2 0x162 SWAP2 SWAP1 PUSH2 0x9A2 JUMP JUMPDEST PUSH2 0x3E2 JUMP JUMPDEST STOP JUMPDEST PUSH2 0x171 PUSH2 0x43D JUMP JUMPDEST PUSH1 0x40 MLOAD PUSH2 0x17E SWAP2 SWAP1 PUSH2 0x9DC JUMP JUMPDEST PUSH1 0x40 MLOAD DUP1 SWAP2 SUB SWAP1 RETURN JUMPDEST PUSH2 0x18F PUSH2 0x44F JUMP JUMPDEST STOP JUMPDEST PUSH2 0x1AB PUSH1 0x4 DUP1 CALLDATASIZE SUB DUP2 ADD SWAP1 PUSH2 0x1A6 SWAP2 SWAP1 PUSH2 0x8BC JUMP JUMPDEST PUSH2 0x462 JUMP JUMPDEST STOP JUMPDEST PUSH2 0x1B5 PUSH2 0x553 JUMP JUMPDEST PUSH1 0x40 MLOAD PUSH2 0x1C2 SWAP2 SWAP1 PUSH2 0x8F6 JUMP JUMPDEST PUSH1 0x40 MLOAD DUP1 SWAP2 SUB SWAP1 RETURN JUMPDEST PUSH2 0x1E5 PUSH1 0x4 DUP1 CALLDATASIZE SUB DUP2 ADD SWAP1 PUSH2 0x1E0 SWAP2 SWAP1 PUSH2 0x8BC JUMP JUMPDEST PUSH2 0x579 JUMP JUMPDEST PUSH1 0x40 MLOAD PUSH2 0x1F2 SWAP2 SWAP1 PUSH2 0x9DC JUMP JUMPDEST PUSH1 0x40 MLOAD DUP1 SWAP2 SUB SWAP1 RETURN JUMPDEST PUSH2 0x203 PUSH2 0x60E JUMP JUMPDEST PUSH1 0x40 MLOAD PUSH2 0x210 SWAP2 SWAP1 PUSH2 0x8F6 JUMP JUMPDEST PUSH1 0x40 MLOAD DUP1 SWAP2 SUB SWAP1 RETURN JUMPDEST PUSH2 0x221 PUSH2 0x635 JUMP JUMPDEST PUSH1 0x40 MLOAD PUSH2 0x22E SWAP2 SWAP1 PUSH2 0xA04 JUMP JUMPDEST PUSH1 0x40 MLOAD DUP1 SWAP2 SUB SWAP1 RETURN JUMPDEST PUSH2 0x23F PUSH2 0x63B JUMP JUMPDEST PUSH1 0x40 MLOAD PUSH2 0x24C SWAP2 SWAP1 PUSH2 0xA04 JUMP JUMPDEST PUSH1 0x40 MLOAD DUP1 SWAP2 SUB SWAP1 RETURN JUMPDEST PUSH2 0x25D PUSH2 0x641 JUMP JUMPDEST PUSH1 0x40 MLOAD PUSH2 0x26A SWAP2 SWAP1 PUSH2 0x8F6 JUMP JUMPDEST PUSH1 0x40 MLOAD DUP1 SWAP2 SUB SWAP1 RETURN JUMPDEST PUSH2 0x27B PUSH2 0x666 JUMP JUMPDEST PUSH1 0x40 MLOAD PUSH2 0x288 SWAP2 SWAP1 PUSH2 0x8F6 JUMP JUMPDEST PUSH1 0x40 MLOAD DUP1 SWAP2 SUB SWAP1 RETURN JUMPDEST PUSH2 0x2AB PUSH1 0x4 DUP1 CALLDATASIZE SUB DUP2 ADD SWAP1 PUSH2 0x2A6 SWAP2 SWAP1 PUSH2 0x8BC JUMP JUMPDEST PUSH2 0x68B JUMP JUMPDEST STOP JUMPDEST PUSH2 0x2B5 PUSH2 0x70F JUMP JUMPDEST DUP1 PUSH1 0x8 PUSH0 PUSH2 0x100 EXP DUP2 SLOAD DUP2 PUSH20 0xFFFFFFFFFFFFFFFFFFFFFFFFFFFFFFFFFFFFFFFF MUL NOT AND SWAP1 DUP4 PUSH20 0xFFFFFFFFFFFFFFFFFFFFFFFFFFFFFFFFFFFFFFFF AND MUL OR SWAP1 SSTORE POP PUSH32 0x8F044878F4D84CCC4D80555F24F9428C1D9297C48B7C7A17E6A50263BE17EF54 DUP2 PUSH1 0x40 MLOAD PUSH2 0x324 SWAP2 SWAP1 PUSH2 0x8F6 JUMP JUMPDEST PUSH1 0x40 MLOAD DUP1 SWAP2 SUB SWAP1 LOG1 POP JUMP JUMPDEST PUSH1 0x2 PUSH0 SWAP1 SLOAD SWAP1 PUSH2 0x100 EXP SWAP1 DIV PUSH20 0xFFFFFFFFFFFFFFFFFFFFFFFFFFFFFFFFFFFFFFFF AND DUP2 JUMP JUMPDEST PUSH2 0x35C PUSH2 0x70F JUMP JUMPDEST PUSH2 0x1F4 DUP2 GT ISZERO PUSH2 0x3A1 JUMPI PUSH1 0x40 MLOAD PUSH32 0x8C379A000000000000000000000000000000000000000000000000000000000 DUP2 MSTORE PUSH1 0x4 ADD PUSH2 0x398 SWAP1 PUSH2 0xA77 JUMP JUMPDEST PUSH1 0x40 MLOAD DUP1 SWAP2 SUB SWAP1 REVERT JUMPDEST DUP1 PUSH1 0x9 DUP2 SWAP1 SSTORE POP PUSH32 0x206DD15151FCC83315419FBE53A71FCF9C09DA803767D3DD05F7874E1B9BF645 DUP2 PUSH1 0x40 MLOAD PUSH2 0x3D7 SWAP2 SWAP1 PUSH2 0xA04 JUMP JUMPDEST PUSH1 0x40 MLOAD DUP1 SWAP2 SUB SWAP1 LOG1 POP JUMP JUMPDEST PUSH2 0x3EA PUSH2 0x70F JUMP JUMPDEST DUP1 PUSH1 0x7 PUSH0 PUSH2 0x100 EXP DUP2 SLOAD DUP2 PUSH1 0xFF MUL NOT AND SWAP1 DUP4 ISZERO ISZERO MUL OR SWAP1 SSTORE POP PUSH32 0x5EF34F53269A04B5B817E5BE24A51BA6B477118B399EC9DD5B2BAF5B299563DC DUP2 PUSH1 0x40 MLOAD PUSH2 0x432 SWAP2 SWAP1 PUSH2 0x9DC JUMP JUMPDEST PUSH1 0x40 MLOAD DUP1 SWAP2 SUB SWAP1 LOG1 POP JUMP JUMPDEST PUSH1 0x7 PUSH0 SWAP1 SLOAD SWAP1 PUSH2 0x100 EXP SWAP1 DIV PUSH1 0xFF AND DUP2 JUMP JUMPDEST PUSH2 0x457 PUSH2 0x70F JUMP JUMPDEST PUSH2 0x460 PUSH0 PUSH2 0x796 JUMP JUMPDEST JUMP JUMPDEST PUSH2 0x46A PUSH2 0x70F JUMP JUMPDEST PUSH0 PUSH20 0xFFFFFFFFFFFFFFFFFFFFFFFFFFFFFFFFFFFFFFFF AND DUP2 PUSH20 0xFFFFFFFFFFFFFFFFFFFFFFFFFFFFFFFFFFFFFFFF AND SUB PUSH2 0x4D8 JUMPI PUSH1 0x40 MLOAD PUSH32 0x8C379A000000000000000000000000000000000000000000000000000000000 DUP2 MSTORE PUSH1 0x4 ADD PUSH2 0x4CF SWAP1 PUSH2 0xADF JUMP JUMPDEST PUSH1 0x40 MLOAD DUP1 SWAP2 SUB SWAP1 REVERT JUMPDEST DUP1 PUSH1 0x7 PUSH1 0x1 PUSH2 0x100 EXP DUP2 SLOAD DUP2 PUSH20 0xFFFFFFFFFFFFFFFFFFFFFFFFFFFFFFFFFFFFFFFF MUL NOT AND SWAP1 DUP4 PUSH20 0xFFFFFFFFFFFFFFFFFFFFFFFFFFFFFFFFFFFFFFFF AND MUL OR SWAP1 SSTORE POP PUSH32 0x3DF77BEB5DB05FCDD70A30FC8ADF3F83F9501B68579455ADBD100B8180940394 DUP2 PUSH1 0x40 MLOAD PUSH2 0x548 SWAP2 SWAP1 PUSH2 0x8F6 JUMP JUMPDEST PUSH1 0x40 MLOAD DUP1 SWAP2 SUB SWAP1 LOG1 POP JUMP JUMPDEST PUSH1 0x7 PUSH1 0x1 SWAP1 SLOAD SWAP1 PUSH2 0x100 EXP SWAP1 DIV PUSH20 0xFFFFFFFFFFFFFFFFFFFFFFFFFFFFFFFFFFFFFFFF AND DUP2 JUMP JUMPDEST PUSH0 PUSH2 0x582 PUSH2 0x60E JUMP JUMPDEST PUSH20 0xFFFFFFFFFFFFFFFFFFFFFFFFFFFFFFFFFFFFFFFF AND DUP3 PUSH20 0xFFFFFFFFFFFFFFFFFFFFFFFFFFFFFFFFFFFFFFFF AND EQ DUP1 PUSH2 0x607 JUMPI POP PUSH1 0x8 PUSH0 SWAP1 SLOAD SWAP1 PUSH2 0x100 EXP SWAP1 DIV PUSH20 0xFFFFFFFFFFFFFFFFFFFFFFFFFFFFFFFFFFFFFFFF AND PUSH20 0xFFFFFFFFFFFFFFFFFFFFFFFFFFFFFFFFFFFFFFFF AND DUP3 PUSH20 0xFFFFFFFFFFFFFFFFFFFFFFFFFFFFFFFFFFFFFFFF AND EQ JUMPDEST SWAP1 POP SWAP2 SWAP1 POP JUMP JUMPDEST PUSH0 PUSH0 PUSH0 SWAP1 SLOAD SWAP1 PUSH2 0x100 EXP SWAP1 DIV PUSH20 0xFFFFFFFFFFFFFFFFFFFFFFFFFFFFFFFFFFFFFFFF AND SWAP1 POP SWAP1 JUMP JUMPDEST PUSH1 0x4 SLOAD DUP2 JUMP JUMPDEST PUSH1 0x9 SLOAD DUP2 JUMP JUMPDEST PUSH1 0x8 PUSH0 SWAP1 SLOAD SWAP1 PUSH2 0x100 EXP SWAP1 DIV PUSH20 0xFFFFFFFFFFFFFFFFFFFFFFFFFFFFFFFFFFFFFFFF AND DUP2 JUMP JUMPDEST PUSH1 0x3 PUSH0 SWAP1 SLOAD SWAP1 PUSH2 0x100 EXP SWAP1 DIV PUSH20 0xFFFFFFFFFFFFFFFFFFFFFFFFFFFFFFFFFFFFFFFF AND DUP2 JUMP JUMPDEST PUSH2 0x693 PUSH2 0x70F JUMP JUMPDEST PUSH0 PUSH20 0xFFFFFFFFFFFFFFFFFFFFFFFFFFFFFFFFFFFFFFFF AND DUP2 PUSH20 0xFFFFFFFFFFFFFFFFFFFFFFFFFFFFFFFFFFFFFFFF AND SUB PUSH2 0x703 JUMPI PUSH0 PUSH1 0x40 MLOAD PUSH32 0x1E4FBDF700000000000000000000000000000000000000000000000000000000 DUP2 MSTORE PUSH1 0x4 ADD PUSH2 0x6FA SWAP2 SWAP1 PUSH2 0x8F6 JUMP JUMPDEST PUSH1 0x40 MLOAD DUP1 SWAP2 SUB SWAP1 REVERT JUMPDEST PUSH2 0x70C DUP2 PUSH2 0x796 JUMP JUMPDEST POP JUMP JUMPDEST PUSH2 0x717 PUSH2 0x857 JUMP JUMPDEST PUSH20 0xFFFFFFFFFFFFFFFFFFFFFFFFFFFFFFFFFFFFFFFF AND PUSH2 0x735 PUSH2 0x60E JUMP JUMPDEST PUSH20 0xFFFFFFFFFFFFFFFFFFFFFFFFFFFFFFFFFFFFFFFF AND EQ PUSH2 0x794 JUMPI PUSH2 0x758 PUSH2 0x857 JUMP JUMPDEST PUSH1 0x40 MLOAD PUSH32 0x118CDAA700000000000000000000000000000000000000000000000000000000 DUP2 MSTORE PUSH1 0x4 ADD PUSH2 0x78B SWAP2 SWAP1 PUSH2 0x8F6 JUMP JUMPDEST PUSH1 0x40 MLOAD DUP1 SWAP2 SUB SWAP1 REVERT JUMPDEST JUMP JUMPDEST PUSH0 PUSH0 PUSH0 SWAP1 SLOAD SWAP1 PUSH2 0x100 EXP SWAP1 DIV PUSH20 0xFFFFFFFFFFFFFFFFFFFFFFFFFFFFFFFFFFFFFFFF AND SWAP1 POP DUP2 PUSH0 PUSH0 PUSH2 0x100 EXP DUP2 SLOAD DUP2 PUSH20 0xFFFFFFFFFFFFFFFFFFFFFFFFFFFFFFFFFFFFFFFF MUL NOT AND SWAP1 DUP4 PUSH20 0xFFFFFFFFFFFFFFFFFFFFFFFFFFFFFFFFFFFFFFFF AND MUL OR SWAP1 SSTORE POP DUP2 PUSH20 0xFFFFFFFFFFFFFFFFFFFFFFFFFFFFFFFFFFFFFFFF AND DUP2 PUSH20 0xFFFFFFFFFFFFFFFFFFFFFFFFFFFFFFFFFFFFFFFF AND PUSH32 0x8BE0079C531659141344CD1FD0A4F28419497F9722A3DAAFE3B4186F6B6457E0 PUSH1 0x40 MLOAD PUSH1 0x40 MLOAD DUP1 SWAP2 SUB SWAP1 LOG3 POP POP JUMP JUMPDEST PUSH0 CALLER SWAP1 POP SWAP1 JUMP JUMPDEST PUSH0 PUSH0 REVERT JUMPDEST PUSH0 PUSH20 0xFFFFFFFFFFFFFFFFFFFFFFFFFFFFFFFFFFFFFFFF DUP3 AND SWAP1 POP SWAP2 SWAP1 POP JUMP JUMPDEST PUSH0 PUSH2 0x88B DUP3 PUSH2 0x862 JUMP JUMPDEST SWAP1 POP SWAP2 SWAP1 POP JUMP JUMPDEST PUSH2 0x89B DUP2 PUSH2 0x881 JUMP JUMPDEST DUP2 EQ PUSH2 0x8A5 JUMPI PUSH0 PUSH0 REVERT JUMPDEST POP JUMP JUMPDEST PUSH0 DUP2 CALLDATALOAD SWAP1 POP PUSH2 0x8B6 DUP2 PUSH2 0x892 JUMP JUMPDEST SWAP3 SWAP2 POP POP JUMP JUMPDEST PUSH0 PUSH1 0x20 DUP3 DUP5 SUB SLT ISZERO PUSH2 0x8D1 JUMPI PUSH2 0x8D0 PUSH2 0x85E JUMP JUMPDEST JUMPDEST PUSH0 PUSH2 0x8DE DUP5 DUP3 DUP6 ADD PUSH2 0x8A8 JUMP JUMPDEST SWAP2 POP POP SWAP3 SWAP2 POP POP JUMP JUMPDEST PUSH2 0x8F0 DUP2 PUSH2 0x881 JUMP JUMPDEST DUP3 MSTORE POP POP JUMP JUMPDEST PUSH0 PUSH1 0x20 DUP3 ADD SWAP1 POP PUSH2 0x909 PUSH0 DUP4 ADD DUP5 PUSH2 0x8E7 JUMP JUMPDEST SWAP3 SWAP2 POP POP JUMP JUMPDEST PUSH0 DUP2 SWAP1 POP SWAP2 SWAP1 POP JUMP JUMPDEST PUSH2 0x921 DUP2 PUSH2 0x90F JUMP JUMPDEST DUP2 EQ PUSH2 0x92B JUMPI PUSH0 PUSH0 REVERT JUMPDEST POP JUMP JUMPDEST PUSH0 DUP2 CALLDATALOAD SWAP1 POP PUSH2 0x93C DUP2 PUSH2 0x918 JUMP JUMPDEST SWAP3 SWAP2 POP POP JUMP JUMPDEST PUSH0 PUSH1 0x20 DUP3 DUP5 SUB SLT ISZERO PUSH2 0x957 JUMPI PUSH2 0x956 PUSH2 0x85E JUMP JUMPDEST JUMPDEST PUSH0 PUSH2 0x964 DUP5 DUP3 DUP6 ADD PUSH2 0x92E JUMP JUMPDEST SWAP2 POP POP SWAP3 SWAP2 POP POP JUMP JUMPDEST PUSH0 DUP2 ISZERO ISZERO SWAP1 POP SWAP2 SWAP1 POP JUMP JUMPDEST PUSH2 0x981 DUP2 PUSH2 0x96D JUMP JUMPDEST DUP2 EQ PUSH2 0x98B JUMPI PUSH0 PUSH0 REVERT JUMPDEST POP JUMP JUMPDEST PUSH0 DUP2 CALLDATALOAD SWAP1 POP PUSH2 0x99C DUP2 PUSH2 0x978 JUMP JUMPDEST SWAP3 SWAP2 POP POP JUMP JUMPDEST PUSH0 PUSH1 0x20 DUP3 DUP5 SUB SLT ISZERO PUSH2 0x9B7 JUMPI PUSH2 0x9B6 PUSH2 0x85E JUMP JUMPDEST JUMPDEST PUSH0 PUSH2 0x9C4 DUP5 DUP3 DUP6 ADD PUSH2 0x98E JUMP JUMPDEST SWAP2 POP POP SWAP3 SWAP2 POP POP JUMP JUMPDEST PUSH2 0x9D6 DUP2 PUSH2 0x96D JUMP JUMPDEST DUP3 MSTORE POP POP JUMP JUMPDEST PUSH0 PUSH1 0x20 DUP3 ADD SWAP1 POP PUSH2 0x9EF PUSH0 DUP4 ADD DUP5 PUSH2 0x9CD JUMP JUMPDEST SWAP3 SWAP2 POP POP JUMP JUMPDEST PUSH2 0x9FE DUP2 PUSH2 0x90F JUMP JUMPDEST DUP3 MSTORE POP POP JUMP JUMPDEST PUSH0 PUSH1 0x20 DUP3 ADD SWAP1 POP PUSH2 0xA17 PUSH0 DUP4 ADD DUP5 PUSH2 0x9F5 JUMP JUMPDEST SWAP3 SWAP2 POP POP JUMP JUMPDEST PUSH0 DUP3 DUP3 MSTORE PUSH1 0x20 DUP3 ADD SWAP1 POP SWAP3 SWAP2 POP POP JUMP JUMPDEST PUSH32 0x46656520746F6F20686967680000000000000000000000000000000000000000 PUSH0 DUP3 ADD MSTORE POP JUMP JUMPDEST PUSH0 PUSH2 0xA61 PUSH1 0xC DUP4 PUSH2 0xA1D JUMP JUMPDEST SWAP2 POP PUSH2 0xA6C DUP3 PUSH2 0xA2D JUMP JUMPDEST PUSH1 0x20 DUP3 ADD SWAP1 POP SWAP2 SWAP1 POP JUMP JUMPDEST PUSH0 PUSH1 0x20 DUP3 ADD SWAP1 POP DUP2 DUP2 SUB PUSH0 DUP4 ADD MSTORE PUSH2 0xA8E DUP2 PUSH2 0xA55 JUMP JUMPDEST SWAP1 POP SWAP2 SWAP1 POP JUMP JUMPDEST PUSH32 0x496E76616C6964206F7261636C65206164647265737300000000000000000000 PUSH0 DUP3 ADD MSTORE POP JUMP JUMPDEST PUSH0 PUSH2 0xAC9 PUSH1 0x16 DUP4 PUSH2 0xA1D JUMP JUMPDEST SWAP2 POP PUSH2 0xAD4 DUP3 PUSH2 0xA95 JUMP JUMPDEST PUSH1 0x20 DUP3 ADD SWAP1 POP SWAP2 SWAP1 POP JUMP JUMPDEST PUSH0 PUSH1 0x20 DUP3 ADD SWAP1 POP DUP2 DUP2 SUB PUSH0 DUP4 ADD MSTORE PUSH2 0xAF6 DUP2 PUSH2 0xABD JUMP JUMPDEST SWAP1 POP SWAP2 SWAP1 POP JUMP INVALID LOG2 PUSH5 0x6970667358 0x22 SLT KECCAK256 0xC8 0x2C 0xD7 DUPN 0xEF KECCAK256 0xB4 PUSH17 0xC762CA25ACC01F12A4E3894BB7CF880418 TSTORE AND GAS CODESIZE 0xD9 PUSH25 0x1864736F6C634300081D003300000000000000000000000000 "
				},
				"gasEstimates": {
					"creation": {
						"codeDepositCost": "573400",
						"executionCost": "infinite",
						"totalCost": "infinite"
					},
					"external": {
						"backendOperator()": "2552",
						"currentIndexPrice()": "2514",
						"depositFeeBps()": "2447",
						"depositsPaused()": "2511",
						"isAuthorizedOperator(address)": "5053",
						"oracle()": "2582",
						"owner()": "2581",
						"owner_()": "2574",
						"renounceOwnership()": "infinite",
						"setBackendOperator(address)": "infinite",
						"setDepositFee(uint256)": "infinite",
						"setDepositPaused(bool)": "infinite",
						"setOracle(address)": "infinite",
						"transferOwnership(address)": "infinite",
						"usdt()": "2554"
					}
				},
				"methodIdentifiers": {
					"backendOperator()": "c7b6084c",
					"currentIndexPrice()": "8e6b409e",
					"depositFeeBps()": "ab879827",
					"depositsPaused()": "60da3e83",
					"isAuthorizedOperator(address)": "82d52c1e",
					"oracle()": "7dc0d1d0",
					"owner()": "8da5cb5b",
					"owner_()": "e7663079",
					"renounceOwnership()": "715018a6",
					"setBackendOperator(address)": "02262ced",
					"setDepositFee(uint256)": "490ae210",
					"setDepositPaused(bool)": "543f66a4",
					"setOracle(address)": "7adbf973",
					"transferOwnership(address)": "f2fde38b",
					"usdt()": "2f48ab7d"
				}
			},
			"storageLayout": {
				"storage": [
					{
						"astId": 8,
						"contract": "ExxaAdmin.sol:ExxaAdmin",
						"label": "_owner",
						"offset": 0,
						"slot": "0",
						"type": "t_address"
					},
					{
						"astId": 329,
						"contract": "ExxaAdmin.sol:ExxaAdmin",
						"label": "globalInvestmentId",
						"offset": 0,
						"slot": "1",
						"type": "t_uint256"
					},
					{
						"astId": 331,
						"contract": "ExxaAdmin.sol:ExxaAdmin",
						"label": "usdt",
						"offset": 0,
						"slot": "2",
						"type": "t_address"
					},
					{
						"astId": 333,
						"contract": "ExxaAdmin.sol:ExxaAdmin",
						"label": "owner_",
						"offset": 0,
						"slot": "3",
						"type": "t_address"
					},
					{
						"astId": 335,
						"contract": "ExxaAdmin.sol:ExxaAdmin",
						"label": "currentIndexPrice",
						"offset": 0,
						"slot": "4",
						"type": "t_uint256"
					},
					{
						"astId": 354,
						"contract": "ExxaAdmin.sol:ExxaAdmin",
						"label": "userInvestments",
						"offset": 0,
						"slot": "5",
						"type": "t_mapping(t_address,t_array(t_struct(Investment)348_storage)dyn_storage)"
					},
					{
						"astId": 359,
						"contract": "ExxaAdmin.sol:ExxaAdmin",
						"label": "investmentsById",
						"offset": 0,
						"slot": "6",
						"type": "t_mapping(t_uint256,t_struct(Investment)348_storage)"
					},
					{
						"astId": 189,
						"contract": "ExxaAdmin.sol:ExxaAdmin",
						"label": "depositsPaused",
						"offset": 0,
						"slot": "7",
						"type": "t_bool"
					},
					{
						"astId": 191,
						"contract": "ExxaAdmin.sol:ExxaAdmin",
						"label": "oracle",
						"offset": 1,
						"slot": "7",
						"type": "t_address"
					},
					{
						"astId": 193,
						"contract": "ExxaAdmin.sol:ExxaAdmin",
						"label": "backendOperator",
						"offset": 0,
						"slot": "8",
						"type": "t_address"
					},
					{
						"astId": 195,
						"contract": "ExxaAdmin.sol:ExxaAdmin",
						"label": "depositFeeBps",
						"offset": 0,
						"slot": "9",
						"type": "t_uint256"
					}
				],
				"types": {
					"t_address": {
						"encoding": "inplace",
						"label": "address",
						"numberOfBytes": "20"
					},
					"t_array(t_struct(Investment)348_storage)dyn_storage": {
						"base": "t_struct(Investment)348_storage",
						"encoding": "dynamic_array",
						"label": "struct ExxaBaseStorage.Investment[]",
						"numberOfBytes": "32"
					},
					"t_bool": {
						"encoding": "inplace",
						"label": "bool",
						"numberOfBytes": "1"
					},
					"t_mapping(t_address,t_array(t_struct(Investment)348_storage)dyn_storage)": {
						"encoding": "mapping",
						"key": "t_address",
						"label": "mapping(address => struct ExxaBaseStorage.Investment[])",
						"numberOfBytes": "32",
						"value": "t_array(t_struct(Investment)348_storage)dyn_storage"
					},
					"t_mapping(t_uint256,t_struct(Investment)348_storage)": {
						"encoding": "mapping",
						"key": "t_uint256",
						"label": "mapping(uint256 => struct ExxaBaseStorage.Investment)",
						"numberOfBytes": "32",
						"value": "t_struct(Investment)348_storage"
					},
					"t_struct(Investment)348_storage": {
						"encoding": "inplace",
						"label": "struct ExxaBaseStorage.Investment",
						"members": [
							{
								"astId": 337,
								"contract": "ExxaAdmin.sol:ExxaAdmin",
								"label": "id",
								"offset": 0,
								"slot": "0",
								"type": "t_uint256"
							},
							{
								"astId": 339,
								"contract": "ExxaAdmin.sol:ExxaAdmin",
								"label": "user",
								"offset": 0,
								"slot": "1",
								"type": "t_address"
							},
							{
								"astId": 341,
								"contract": "ExxaAdmin.sol:ExxaAdmin",
								"label": "amountUSD",
								"offset": 0,
								"slot": "2",
								"type": "t_uint256"
							},
							{
								"astId": 343,
								"contract": "ExxaAdmin.sol:ExxaAdmin",
								"label": "indexAtEntry",
								"offset": 0,
								"slot": "3",
								"type": "t_uint256"
							},
							{
								"astId": 345,
								"contract": "ExxaAdmin.sol:ExxaAdmin",
								"label": "timestamp",
								"offset": 0,
								"slot": "4",
								"type": "t_uint256"
							},
							{
								"astId": 347,
								"contract": "ExxaAdmin.sol:ExxaAdmin",
								"label": "withdrawn",
								"offset": 0,
								"slot": "5",
								"type": "t_bool"
							}
						],
						"numberOfBytes": "192"
					},
					"t_uint256": {
						"encoding": "inplace",
						"label": "uint256",
						"numberOfBytes": "32"
					}
				}
			},
			"userdoc": {
				"kind": "user",
				"methods": {},
				"version": 1
			}
		}
	}
}